{
  "contractName": "Test",
  "abi": [
    {
      "inputs": [],
      "name": "rawVs",
      "outputs": [
        {
          "internalType": "bytes32",
          "name": "",
          "type": "bytes32"
        }
      ],
      "stateMutability": "view",
      "type": "function"
    },
    {
      "inputs": [],
      "name": "report",
      "outputs": [
        {
          "internalType": "bytes",
          "name": "",
          "type": "bytes"
        }
      ],
      "stateMutability": "view",
      "type": "function"
    },
    {
      "inputs": [
        {
          "internalType": "uint256",
          "name": "",
          "type": "uint256"
        }
      ],
      "name": "rs",
      "outputs": [
        {
          "internalType": "bytes32",
          "name": "",
          "type": "bytes32"
        }
      ],
      "stateMutability": "view",
      "type": "function"
    },
    {
      "inputs": [
        {
          "internalType": "uint256",
          "name": "",
          "type": "uint256"
        }
      ],
      "name": "ss",
      "outputs": [
        {
          "internalType": "bytes32",
          "name": "",
          "type": "bytes32"
        }
      ],
      "stateMutability": "view",
      "type": "function"
    },
    {
      "inputs": [],
      "name": "value",
      "outputs": [
        {
          "internalType": "uint256",
          "name": "",
          "type": "uint256"
        }
      ],
      "stateMutability": "view",
      "type": "function"
    },
    {
      "inputs": [
        {
          "internalType": "uint256",
          "name": "_value",
          "type": "uint256"
        }
      ],
      "name": "setValue",
      "outputs": [],
      "stateMutability": "nonpayable",
      "type": "function"
    },
    {
      "inputs": [],
      "name": "getValue",
      "outputs": [
        {
          "internalType": "uint256",
          "name": "",
          "type": "uint256"
        }
      ],
      "stateMutability": "view",
      "type": "function"
    },
    {
      "inputs": [
        {
          "internalType": "bytes",
          "name": "_report",
          "type": "bytes"
        },
        {
          "internalType": "bytes32[]",
          "name": "_rs",
          "type": "bytes32[]"
        },
        {
          "internalType": "bytes32[]",
          "name": "_ss",
          "type": "bytes32[]"
        },
        {
          "internalType": "bytes32",
          "name": "_rawVs",
          "type": "bytes32"
        }
      ],
      "name": "transmit",
      "outputs": [],
      "stateMutability": "nonpayable",
      "type": "function"
    }
  ],
  "bytecode": "0x608060405234801561001057600080fd5b506104a5806100206000396000f3fe608060405234801561001057600080fd5b50600436106100885760003560e01c8063989d12b61161005b578063989d12b61461014b578063c980753914610168578063d09564261461027c578063e1ab7f3b1461029957610088565b8063209652551461008d5780632606a10b146100a75780633fa4f24514610124578063552410771461012c575b600080fd5b6100956102a1565b60408051918252519081900360200190f35b6100af6102a7565b6040805160208082528351818301528351919283929083019185019080838360005b838110156100e95781810151838201526020016100d1565b50505050905090810190601f1680156101165780820380516001836020036101000a031916815260200191505b509250505060405180910390f35b610095610334565b6101496004803603602081101561014257600080fd5b503561033a565b005b6100956004803603602081101561016157600080fd5b503561033f565b6101496004803603608081101561017e57600080fd5b81019060208101813564010000000081111561019957600080fd5b8201836020820111156101ab57600080fd5b803590602001918460018302840111640100000000831117156101cd57600080fd5b9193909290916020810190356401000000008111156101eb57600080fd5b8201836020820111156101fd57600080fd5b8035906020019184602083028401116401000000008311171561021f57600080fd5b91939092909160208101903564010000000081111561023d57600080fd5b82018360208201111561024f57600080fd5b8035906020019184602083028401116401000000008311171561027157600080fd5b91935091503561035d565b6100956004803603602081101561029257600080fd5b503561038f565b61009561039c565b60005490565b60018054604080516020600284861615610100026000190190941693909304601f8101849004840282018401909252818152929183018282801561032c5780601f106103015761010080835404028352916020019161032c565b820191906000526020600020905b81548152906001019060200180831161030f57829003601f168201915b505050505081565b60005481565b600055565b6003818154811061034c57fe5b600091825260209091200154905081565b610369600188886103a2565b5061037660028686610420565b5061038360038484610420565b50600455505050505050565b6002818154811061034c57fe5b60045481565b828054600181600116156101000203166002900490600052602060002090601f016020900481019282601f106103e35782800160ff19823516178555610410565b82800160010185558215610410579182015b828111156104105782358255916020019190600101906103f5565b5061041c92915061045a565b5090565b82805482825590600052602060002090810192821561041057916020028201828111156104105782358255916020019190600101906103f5565b5b8082111561041c576000815560010161045b56fea2646970667358221220cc43d0fd9836b4a33f30497b1e4493086d87c2b74893c9f9799214d6ebc06acd64736f6c634300060c0033",
  "immutableReferences": {},
  "source": "pragma solidity 0.6.12;\n\ncontract Test {\n    uint256 public value;\n    bytes public report;\n    bytes32[] public rs;\n    bytes32[] public ss;\n    bytes32 public rawVs;\n\n\n    function setValue(uint256 _value) external{\n        value = _value;\n    }\n\n    function getValue() external view returns(uint256){\n        return value;\n    }\n\n    function transmit(\n        bytes calldata _report,\n        bytes32[] calldata _rs,\n        bytes32[] calldata _ss,\n        bytes32 _rawVs\n    ) external{\n        report = _report;\n        rs = _rs;\n        ss = _ss;\n        rawVs = _rawVs;\n    }\n}\n",
  "sourcePath": "/Users/liwei/Documents/workspace/nft-shard-project/standard-mail/contracts/Test.sol",
  "compiler": {
    "name": "solc",
    "version": "0.6.12+commit.27d51765.Emscripten.clang"
  },
  "schemaVersion": "3.3.4",
  "updatedAt": "2021-05-12T07:08:33.501Z",
  "devdoc": {
    "kind": "dev",
    "methods": {},
    "version": 1
  },
  "userdoc": {
    "kind": "user",
    "methods": {},
    "version": 1
  }
}