{
  "_format": "hh-sol-artifact-1",
  "contractName": "BridgeIn",
  "sourceName": "contracts/BridgeIn.sol",
  "abi": [
    {
      "anonymous": false,
      "inputs": [
        {
          "indexed": false,
          "internalType": "string",
          "name": "receiptId",
          "type": "string"
        },
        {
          "indexed": false,
          "internalType": "address",
          "name": "asset",
          "type": "address"
        },
        {
          "indexed": false,
          "internalType": "address",
          "name": "owner",
          "type": "address"
        },
        {
          "indexed": false,
          "internalType": "uint256",
          "name": "amount",
          "type": "uint256"
        }
      ],
      "name": "NewReceipt",
      "type": "event"
    },
    {
      "anonymous": false,
      "inputs": [
        {
          "indexed": true,
          "internalType": "address",
          "name": "previousOwner",
          "type": "address"
        },
        {
          "indexed": true,
          "internalType": "address",
          "name": "newOwner",
          "type": "address"
        }
      ],
      "name": "OwnershipTransferred",
      "type": "event"
    },
    {
      "anonymous": false,
      "inputs": [
        {
          "indexed": false,
          "internalType": "address",
          "name": "token",
          "type": "address"
        },
        {
          "indexed": false,
          "internalType": "string",
          "name": "chainId",
          "type": "string"
        }
      ],
      "name": "TokenAdded",
      "type": "event"
    },
    {
      "anonymous": false,
      "inputs": [
        {
          "indexed": false,
          "internalType": "address",
          "name": "token",
          "type": "address"
        },
        {
          "indexed": false,
          "internalType": "string",
          "name": "chainId",
          "type": "string"
        }
      ],
      "name": "TokenRemoved",
      "type": "event"
    },
    {
      "inputs": [
        {
          "internalType": "bytes32",
          "name": "tokenKey",
          "type": "bytes32"
        },
        {
          "internalType": "uint256",
          "name": "receiptIndex",
          "type": "uint256"
        }
      ],
      "name": "_generateReceiptId",
      "outputs": [
        {
          "internalType": "string",
          "name": "",
          "type": "string"
        }
      ],
      "stateMutability": "pure",
      "type": "function"
    },
    {
      "inputs": [
        {
          "internalType": "address",
          "name": "token",
          "type": "address"
        },
        {
          "internalType": "string",
          "name": "chainId",
          "type": "string"
        }
      ],
      "name": "_generateTokenKey",
      "outputs": [
        {
          "internalType": "bytes32",
          "name": "",
          "type": "bytes32"
        }
      ],
      "stateMutability": "pure",
      "type": "function"
    },
    {
      "inputs": [
        {
          "internalType": "address",
          "name": "token",
          "type": "address"
        },
        {
          "internalType": "string",
          "name": "chainId",
          "type": "string"
        }
      ],
      "name": "addToken",
      "outputs": [],
      "stateMutability": "nonpayable",
      "type": "function"
    },
    {
      "inputs": [
        {
          "internalType": "address",
          "name": "token",
          "type": "address"
        },
        {
          "internalType": "uint256",
          "name": "amount",
          "type": "uint256"
        },
        {
          "internalType": "string",
          "name": "targetChainId",
          "type": "string"
        },
        {
          "internalType": "string",
          "name": "targetAddress",
          "type": "string"
        }
      ],
      "name": "createReceipt",
      "outputs": [],
      "stateMutability": "nonpayable",
      "type": "function"
    },
    {
      "inputs": [
        {
          "internalType": "address",
          "name": "user",
          "type": "address"
        },
        {
          "internalType": "address",
          "name": "token",
          "type": "address"
        },
        {
          "internalType": "string",
          "name": "targetChainId",
          "type": "string"
        }
      ],
      "name": "getMyReceipts",
      "outputs": [
        {
          "internalType": "string[]",
          "name": "",
          "type": "string[]"
        }
      ],
      "stateMutability": "view",
      "type": "function"
    },
    {
      "inputs": [
        {
          "internalType": "address[]",
          "name": "tokens",
          "type": "address[]"
        },
        {
          "internalType": "string[]",
          "name": "targetChainIds",
          "type": "string[]"
        }
      ],
      "name": "getSendReceiptIndex",
      "outputs": [
        {
          "internalType": "uint256[]",
          "name": "indexes",
          "type": "uint256[]"
        }
      ],
      "stateMutability": "view",
      "type": "function"
    },
    {
      "inputs": [
        {
          "internalType": "address",
          "name": "token",
          "type": "address"
        },
        {
          "internalType": "string",
          "name": "targetChainId",
          "type": "string"
        },
        {
          "internalType": "uint256",
          "name": "fromIndex",
          "type": "uint256"
        },
        {
          "internalType": "uint256",
          "name": "endIndex",
          "type": "uint256"
        }
      ],
      "name": "getSendReceiptInfos",
      "outputs": [
        {
          "components": [
            {
              "internalType": "address",
              "name": "asset",
              "type": "address"
            },
            {
              "internalType": "address",
              "name": "owner",
              "type": "address"
            },
            {
              "internalType": "uint256",
              "name": "amount",
              "type": "uint256"
            },
            {
              "internalType": "uint256",
              "name": "blockHeight",
              "type": "uint256"
            },
            {
              "internalType": "uint256",
              "name": "blockTime",
              "type": "uint256"
            },
            {
              "internalType": "string",
              "name": "targetChainId",
              "type": "string"
            },
            {
              "internalType": "string",
              "name": "targetAddress",
              "type": "string"
            },
            {
              "internalType": "string",
              "name": "receiptId",
              "type": "string"
            }
          ],
          "internalType": "struct BridgeIn.Receipt[]",
          "name": "_receipts",
          "type": "tuple[]"
        }
      ],
      "stateMutability": "view",
      "type": "function"
    },
    {
      "inputs": [
        {
          "internalType": "address",
          "name": "token",
          "type": "address"
        },
        {
          "internalType": "string",
          "name": "chainId",
          "type": "string"
        }
      ],
      "name": "isSupported",
      "outputs": [
        {
          "internalType": "bool",
          "name": "",
          "type": "bool"
        }
      ],
      "stateMutability": "view",
      "type": "function"
    },
    {
      "inputs": [],
      "name": "owner",
      "outputs": [
        {
          "internalType": "address",
          "name": "",
          "type": "address"
        }
      ],
      "stateMutability": "view",
      "type": "function"
    },
    {
      "inputs": [
        {
          "internalType": "address",
          "name": "",
          "type": "address"
        },
        {
          "internalType": "bytes32",
          "name": "",
          "type": "bytes32"
        },
        {
          "internalType": "uint256",
          "name": "",
          "type": "uint256"
        }
      ],
      "name": "ownerToReceipts",
      "outputs": [
        {
          "internalType": "string",
          "name": "",
          "type": "string"
        }
      ],
      "stateMutability": "view",
      "type": "function"
    },
    {
      "inputs": [
        {
          "internalType": "bytes32",
          "name": "",
          "type": "bytes32"
        },
        {
          "internalType": "uint256",
          "name": "",
          "type": "uint256"
        }
      ],
      "name": "receipts",
      "outputs": [
        {
          "internalType": "address",
          "name": "asset",
          "type": "address"
        },
        {
          "internalType": "address",
          "name": "owner",
          "type": "address"
        },
        {
          "internalType": "uint256",
          "name": "amount",
          "type": "uint256"
        },
        {
          "internalType": "uint256",
          "name": "blockHeight",
          "type": "uint256"
        },
        {
          "internalType": "uint256",
          "name": "blockTime",
          "type": "uint256"
        },
        {
          "internalType": "string",
          "name": "targetChainId",
          "type": "string"
        },
        {
          "internalType": "string",
          "name": "targetAddress",
          "type": "string"
        },
        {
          "internalType": "string",
          "name": "receiptId",
          "type": "string"
        }
      ],
      "stateMutability": "view",
      "type": "function"
    },
    {
      "inputs": [
        {
          "internalType": "address",
          "name": "token",
          "type": "address"
        },
        {
          "internalType": "string",
          "name": "chainId",
          "type": "string"
        }
      ],
      "name": "removeToken",
      "outputs": [],
      "stateMutability": "nonpayable",
      "type": "function"
    },
    {
      "inputs": [],
      "name": "renounceOwnership",
      "outputs": [],
      "stateMutability": "nonpayable",
      "type": "function"
    },
    {
      "inputs": [
        {
          "internalType": "bytes32",
          "name": "",
          "type": "bytes32"
        }
      ],
      "name": "totalAmountInReceipts",
      "outputs": [
        {
          "internalType": "uint256",
          "name": "",
          "type": "uint256"
        }
      ],
      "stateMutability": "view",
      "type": "function"
    },
    {
      "inputs": [
        {
          "internalType": "address",
          "name": "newOwner",
          "type": "address"
        }
      ],
      "name": "transferOwnership",
      "outputs": [],
      "stateMutability": "nonpayable",
      "type": "function"
    }
  ],
  "bytecode": "0x60806040523480156200001157600080fd5b5062000032620000266200003860201b60201c565b6200004060201b60201c565b62000104565b600033905090565b60008060009054906101000a900473ffffffffffffffffffffffffffffffffffffffff169050816000806101000a81548173ffffffffffffffffffffffffffffffffffffffff021916908373ffffffffffffffffffffffffffffffffffffffff1602179055508173ffffffffffffffffffffffffffffffffffffffff168173ffffffffffffffffffffffffffffffffffffffff167f8be0079c531659141344cd1fd0a4f28419497f9722a3daafe3b4186f6b6457e060405160405180910390a35050565b613a7580620001146000396000f3fe608060405234801561001057600080fd5b50600436106100f55760003560e01c8063715018a61161009757806398cf2dcd1161006657806398cf2dcd146102b1578063dc78d137146102e1578063e469640a14610311578063f2fde38b1461032d576100f5565b8063715018a61461023d57806381020a34146102475780638da5cb5b146102775780638f2c7eaf14610295576100f5565b80634fa4c941116100d35780634fa4c94114610176578063526da4c5146101a6578063538a802a146101d65780636da3dbbd1461020d576100f5565b80632c8da560146100fa578063407d83d914610116578063446f95b414610146575b600080fd5b610114600480360381019061010f91906122fd565b610349565b005b610130600480360381019061012b91906122fd565b610466565b60405161013d9190612378565b60405180910390f35b610160600480360381019061015b91906124d4565b6104d7565b60405161016d9190612549565b60405180910390f35b610190600480360381019061018b9190612590565b610552565b60405161019d91906125d6565b60405180910390f35b6101c060048036038101906101bb919061261d565b61056a565b6040516101cd91906126e5565b60405180910390f35b6101f060048036038101906101eb919061261d565b6105ef565b604051610204989796959493929190612716565b60405180910390f35b610227600480360381019061022291906128c2565b61082c565b60405161023491906129fc565b60405180910390f35b6102456109b3565b005b610261600480360381019061025c9190612a1e565b6109c7565b60405161026e9190612b9e565b60405180910390f35b61027f610b4c565b60405161028c9190612bc0565b60405180910390f35b6102af60048036038101906102aa91906122fd565b610b75565b005b6102cb60048036038101906102c69190612bdb565b610c92565b6040516102d89190612df2565b60405180910390f35b6102fb60048036038101906102f69190612e14565b611115565b60405161030891906126e5565b60405180910390f35b61032b60048036038101906103269190612e67565b6111db565b005b61034760048036038101906103429190612f0e565b611626565b005b610351610b4c565b73ffffffffffffffffffffffffffffffffffffffff163373ffffffffffffffffffffffffffffffffffffffff16146103be576040517f08c379a00000000000000000000000000000000000000000000000000000000081526004016103b590612f87565b60405180910390fd5b600061040e8484848080601f016020809104026020016040519081016040528093929190818152602001838380828437600081840152601f19601f820116905080830192505050505050506104d7565b90506104248160046116aa90919063ffffffff16565b507f7afee0f1b802cc0f66c67890e26b4566251859cf2cd8de79b86aed7251d9756a84848460405161045893929190612fd4565b60405180910390a150505050565b6000806104b78585858080601f016020809104026020016040519081016040528093929190818152602001838380828437600081840152601f19601f820116905080830192505050505050506104d7565b90506104cd8160046116c190919063ffffffff16565b9150509392505050565b6000600283836040516020016104ee92919061308a565b60405160208183030381529060405260405161050a91906130f9565b602060405180830381855afa158015610527573d6000803e3d6000fd5b5050506040513d601f19601f8201168201806040525081019061054a9190613125565b905092915050565b60026020528060005260406000206000915090505481565b60606000610577846116d8565b905060006040518060400160405280600181526020017f2e00000000000000000000000000000000000000000000000000000000000000815250905060006105be85611717565b90508282826040516020016105d593929190613152565b604051602081830303815290604052935050505092915050565b6001602052816000526040600020818154811061060b57600080fd5b9060005260206000209060080201600091509150508060000160009054906101000a900473ffffffffffffffffffffffffffffffffffffffff16908060010160009054906101000a900473ffffffffffffffffffffffffffffffffffffffff169080600201549080600301549080600401549080600501805461068d906131b2565b80601f01602080910402602001604051908101604052809291908181526020018280546106b9906131b2565b80156107065780601f106106db57610100808354040283529160200191610706565b820191906000526020600020905b8154815290600101906020018083116106e957829003601f168201915b50505050509080600601805461071b906131b2565b80601f0160208091040260200160405190810160405280929190818152602001828054610747906131b2565b80156107945780601f1061076957610100808354040283529160200191610794565b820191906000526020600020905b81548152906001019060200180831161077757829003601f168201915b5050505050908060070180546107a9906131b2565b80601f01602080910402602001604051908101604052809291908181526020018280546107d5906131b2565b80156108225780601f106107f757610100808354040283529160200191610822565b820191906000526020600020905b81548152906001019060200180831161080557829003601f168201915b5050505050905088565b606082829050845114610874576040517f08c379a000000000000000000000000000000000000000000000000000000000815260040161086b90613256565b60405180910390fd5b835167ffffffffffffffff81111561088f5761088e6123a9565b5b6040519080825280602002602001820160405280156108bd5781602001602082028036833780820191505090505b50905060005b84518110156109ab5760006109598683815181106108e4576108e3613276565b5b60200260200101518686858181106108ff576108fe613276565b5b905060200281019061091191906132b4565b8080601f016020809104026020016040519081016040528093929190818152602001838380828437600081840152601f19601f820116905080830192505050505050506104d7565b90506000600160008381526020019081526020016000208054905090508084848151811061098a57610989613276565b5b602002602001018181525050505080806109a390613346565b9150506108c3565b509392505050565b6109bb611878565b6109c560006118f6565b565b60606000610a198585858080601f016020809104026020016040519081016040528093929190818152602001838380828437600081840152601f19601f820116905080830192505050505050506104d7565b90506000600360008873ffffffffffffffffffffffffffffffffffffffff1673ffffffffffffffffffffffffffffffffffffffff1681526020019081526020016000206000838152602001908152602001600020805480602002602001604051908101604052809291908181526020016000905b82821015610b39578382906000526020600020018054610aac906131b2565b80601f0160208091040260200160405190810160405280929190818152602001828054610ad8906131b2565b8015610b255780601f10610afa57610100808354040283529160200191610b25565b820191906000526020600020905b815481529060010190602001808311610b0857829003601f168201915b505050505081526020019060010190610a8d565b5050505090508092505050949350505050565b60008060009054906101000a900473ffffffffffffffffffffffffffffffffffffffff16905090565b610b7d610b4c565b73ffffffffffffffffffffffffffffffffffffffff163373ffffffffffffffffffffffffffffffffffffffff1614610bea576040517f08c379a0000000000000000000000000000000000000000000000000000000008152600401610be190612f87565b60405180910390fd5b6000610c3a8484848080601f016020809104026020016040519081016040528093929190818152602001838380828437600081840152601f19601f820116905080830192505050505050506104d7565b9050610c508160046119ba90919063ffffffff16565b507f617a625823f687a1440db57ae598a2ba91f2c2d180bb2adc78e5fbfed162ca33848484604051610c8493929190612fd4565b60405180910390a150505050565b60606000610ce48787878080601f016020809104026020016040519081016040528093929190818152602001838380828437600081840152601f19601f820116905080830192505050505050506104d7565b9050600060016000838152602001908152602001600020805490501415610d0b575061110c565b60016000828152602001908152602001600020805490508311158015610d315750600084115b610d70576040517f08c379a0000000000000000000000000000000000000000000000000000000008152600401610d67906133db565b60405180910390fd5b6000610d986001610d8a87876119d190919063ffffffff16565b6119e790919063ffffffff16565b90508067ffffffffffffffff811115610db457610db36123a9565b5b604051908082528060200260200182016040528015610ded57816020015b610dda612112565b815260200190600190039081610dd25790505b5092506000600186610dff91906133fb565b90505b8481101561110857600160008481526020019081526020016000208181548110610e2f57610e2e613276565b5b9060005260206000209060080201604051806101000160405290816000820160009054906101000a900473ffffffffffffffffffffffffffffffffffffffff1673ffffffffffffffffffffffffffffffffffffffff1673ffffffffffffffffffffffffffffffffffffffff1681526020016001820160009054906101000a900473ffffffffffffffffffffffffffffffffffffffff1673ffffffffffffffffffffffffffffffffffffffff1673ffffffffffffffffffffffffffffffffffffffff168152602001600282015481526020016003820154815260200160048201548152602001600582018054610f23906131b2565b80601f0160208091040260200160405190810160405280929190818152602001828054610f4f906131b2565b8015610f9c5780601f10610f7157610100808354040283529160200191610f9c565b820191906000526020600020905b815481529060010190602001808311610f7f57829003601f168201915b50505050508152602001600682018054610fb5906131b2565b80601f0160208091040260200160405190810160405280929190818152602001828054610fe1906131b2565b801561102e5780601f106110035761010080835404028352916020019161102e565b820191906000526020600020905b81548152906001019060200180831161101157829003601f168201915b50505050508152602001600782018054611047906131b2565b80601f0160208091040260200160405190810160405280929190818152602001828054611073906131b2565b80156110c05780601f10611095576101008083540402835291602001916110c0565b820191906000526020600020905b8154815290600101906020018083116110a357829003601f168201915b5050505050815250508482815181106110dc576110db613276565b5b602002602001018190525080806110f290613346565b915050808061110090613346565b915050610e02565b5050505b95945050505050565b6003602052826000526040600020602052816000526040600020818154811061113d57600080fd5b906000526020600020016000925092505050805461115a906131b2565b80601f0160208091040260200160405190810160405280929190818152602001828054611186906131b2565b80156111d35780601f106111a8576101008083540402835291602001916111d3565b820191906000526020600020905b8154815290600101906020018083116111b657829003601f168201915b505050505081565b600061122b8786868080601f016020809104026020016040519081016040528093929190818152602001838380828437600081840152601f19601f820116905080830192505050505050506104d7565b90506112418160046116c190919063ffffffff16565b611280576040517f08c379a0000000000000000000000000000000000000000000000000000000008152600401611277906134a1565b60405180910390fd5b6112ad3330888a73ffffffffffffffffffffffffffffffffffffffff166119fd909392919063ffffffff16565b60006112d86001806000858152602001908152602001600020805490506119e790919063ffffffff16565b905060006112e6838361056a565b9050600160008481526020019081526020016000206040518061010001604052808b73ffffffffffffffffffffffffffffffffffffffff1681526020013373ffffffffffffffffffffffffffffffffffffffff1681526020018a815260200143815260200142815260200189898080601f016020809104026020016040519081016040528093929190818152602001838380828437600081840152601f19601f82011690508083019250505050505050815260200187878080601f016020809104026020016040519081016040528093929190818152602001838380828437600081840152601f19601f82011690508083019250505050505050815260200183815250908060018154018082558091505060019003906000526020600020906008020160009091909190915060008201518160000160006101000a81548173ffffffffffffffffffffffffffffffffffffffff021916908373ffffffffffffffffffffffffffffffffffffffff16021790555060208201518160010160006101000a81548173ffffffffffffffffffffffffffffffffffffffff021916908373ffffffffffffffffffffffffffffffffffffffff16021790555060408201518160020155606082015181600301556080820151816004015560a08201518160050190805190602001906114da929190612183565b5060c08201518160060190805190602001906114f7929190612183565b5060e0820151816007019080519060200190611514929190612183565b50505061153d8860026000868152602001908152602001600020546119e790919063ffffffff16565b6002600085815260200190815260200160002081905550600360003373ffffffffffffffffffffffffffffffffffffffff1673ffffffffffffffffffffffffffffffffffffffff1681526020019081526020016000206000848152602001908152602001600020819080600181540180825580915050600190039060005260206000200160009091909190915090805190602001906115dd929190612183565b507f50ca3994210a330ab9ce981c2856cfdcec3e63e889ae3cea5202478d40dff2d5818a8b8b60405161161394939291906134c1565b60405180910390a1505050505050505050565b61162e611878565b600073ffffffffffffffffffffffffffffffffffffffff168173ffffffffffffffffffffffffffffffffffffffff16141561169e576040517f08c379a00000000000000000000000000000000000000000000000000000000081526004016116959061357f565b60405180910390fd5b6116a7816118f6565b50565b60006116b98360000183611a86565b905092915050565b60006116d08360000183611af6565b905092915050565b60606116e382611b19565b6116f0608084901b611b19565b60405160200161170192919061360c565b6040516020818303038152906040529050919050565b6060600082141561175f576040518060400160405280600181526020017f30000000000000000000000000000000000000000000000000000000000000008152509050611873565b600082905060005b6000821461179157808061177a90613346565b915050600a8261178a9190613672565b9150611767565b60008167ffffffffffffffff8111156117ad576117ac6123a9565b5b6040519080825280601f01601f1916602001820160405280156117df5781602001600182028036833780820191505090505b5090505b6000851461186c576001826117f891906133fb565b9150600a8561180791906136a3565b603061181391906136d4565b60f81b81838151811061182957611828613276565b5b60200101907effffffffffffffffffffffffffffffffffffffffffffffffffffffffffffff1916908160001a905350600a856118659190613672565b94506117e3565b8093505050505b919050565b611880611d79565b73ffffffffffffffffffffffffffffffffffffffff1661189e610b4c565b73ffffffffffffffffffffffffffffffffffffffff16146118f4576040517f08c379a00000000000000000000000000000000000000000000000000000000081526004016118eb90613776565b60405180910390fd5b565b60008060009054906101000a900473ffffffffffffffffffffffffffffffffffffffff169050816000806101000a81548173ffffffffffffffffffffffffffffffffffffffff021916908373ffffffffffffffffffffffffffffffffffffffff1602179055508173ffffffffffffffffffffffffffffffffffffffff168173ffffffffffffffffffffffffffffffffffffffff167f8be0079c531659141344cd1fd0a4f28419497f9722a3daafe3b4186f6b6457e060405160405180910390a35050565b60006119c98360000183611d81565b905092915050565b600081836119df91906133fb565b905092915050565b600081836119f591906136d4565b905092915050565b611a80846323b872dd60e01b858585604051602401611a1e93929190613796565b604051602081830303815290604052907bffffffffffffffffffffffffffffffffffffffffffffffffffffffff19166020820180517bffffffffffffffffffffffffffffffffffffffffffffffffffffffff8381831617835250505050611e95565b50505050565b6000611a928383611af6565b611aeb578260000182908060018154018082558091505060019003906000526020600020016000909190919091505582600001805490508360010160008481526020019081526020016000208190555060019050611af0565b600090505b92915050565b600080836001016000848152602001908152602001600020541415905092915050565b6000604077ffffffffffffffff0000000000000000000000000000000060001b836fffffffffffffffffffffffffffffffff191616901c7fffffffffffffffff00000000000000000000000000000000000000000000000060001b836fffffffffffffffffffffffffffffffff19161617905060207bffffffff000000000000000000000000ffffffff000000000000000060001b8216901c7fffffffff000000000000000000000000ffffffff00000000000000000000000060001b821617905060107dffff000000000000ffff000000000000ffff000000000000ffff0000000060001b8216901c7fffff000000000000ffff000000000000ffff000000000000ffff00000000000060001b821617905060087eff000000ff000000ff000000ff000000ff000000ff000000ff000000ff000060001b8216901c7fff000000ff000000ff000000ff000000ff000000ff000000ff000000ff00000060001b821617905060087f0f000f000f000f000f000f000f000f000f000f000f000f000f000f000f000f0060001b8216901c60047ff000f000f000f000f000f000f000f000f000f000f000f000f000f000f000f00060001b8316901c17905060277f0f0f0f0f0f0f0f0f0f0f0f0f0f0f0f0f0f0f0f0f0f0f0f0f0f0f0f0f0f0f0f0f60047f06060606060606060606060606060606060606060606060606060606060606068460001c611d2991906136d4565b901c16611d3691906137cd565b8160001c7f3030303030303030303030303030303030303030303030303030303030303030611d6591906136d4565b611d6f91906136d4565b60001b9050919050565b600033905090565b60008083600101600084815260200190815260200160002054905060008114611e89576000600182611db391906133fb565b9050600060018660000180549050611dcb91906133fb565b9050818114611e3a576000866000018281548110611dec57611deb613276565b5b9060005260206000200154905080876000018481548110611e1057611e0f613276565b5b90600052602060002001819055508387600101600083815260200190815260200160002081905550505b85600001805480611e4e57611e4d613827565b5b600190038181906000526020600020016000905590558560010160008681526020019081526020016000206000905560019350505050611e8f565b60009150505b92915050565b6000611ef7826040518060400160405280602081526020017f5361666545524332303a206c6f772d6c6576656c2063616c6c206661696c65648152508573ffffffffffffffffffffffffffffffffffffffff16611f5c9092919063ffffffff16565b9050600081511115611f575780806020019051810190611f179190613882565b611f56576040517f08c379a0000000000000000000000000000000000000000000000000000000008152600401611f4d90613921565b60405180910390fd5b5b505050565b6060611f6b8484600085611f74565b90509392505050565b606082471015611fb9576040517f08c379a0000000000000000000000000000000000000000000000000000000008152600401611fb0906139b3565b60405180910390fd5b611fc285612088565b612001576040517f08c379a0000000000000000000000000000000000000000000000000000000008152600401611ff890613a1f565b60405180910390fd5b6000808673ffffffffffffffffffffffffffffffffffffffff16858760405161202a91906130f9565b60006040518083038185875af1925050503d8060008114612067576040519150601f19603f3d011682016040523d82523d6000602084013e61206c565b606091505b509150915061207c8282866120ab565b92505050949350505050565b6000808273ffffffffffffffffffffffffffffffffffffffff163b119050919050565b606083156120bb5782905061210b565b6000835111156120ce5782518084602001fd5b816040517f08c379a000000000000000000000000000000000000000000000000000000000815260040161210291906126e5565b60405180910390fd5b9392505050565b604051806101000160405280600073ffffffffffffffffffffffffffffffffffffffff168152602001600073ffffffffffffffffffffffffffffffffffffffff1681526020016000815260200160008152602001600081526020016060815260200160608152602001606081525090565b82805461218f906131b2565b90600052602060002090601f0160209004810192826121b157600085556121f8565b82601f106121ca57805160ff19168380011785556121f8565b828001600101855582156121f8579182015b828111156121f75782518255916020019190600101906121dc565b5b5090506122059190612209565b5090565b5b8082111561222257600081600090555060010161220a565b5090565b6000604051905090565b600080fd5b600080fd5b600073ffffffffffffffffffffffffffffffffffffffff82169050919050565b60006122658261223a565b9050919050565b6122758161225a565b811461228057600080fd5b50565b6000813590506122928161226c565b92915050565b600080fd5b600080fd5b600080fd5b60008083601f8401126122bd576122bc612298565b5b8235905067ffffffffffffffff8111156122da576122d961229d565b5b6020830191508360018202830111156122f6576122f56122a2565b5b9250929050565b60008060006040848603121561231657612315612230565b5b600061232486828701612283565b935050602084013567ffffffffffffffff81111561234557612344612235565b5b612351868287016122a7565b92509250509250925092565b60008115159050919050565b6123728161235d565b82525050565b600060208201905061238d6000830184612369565b92915050565b600080fd5b6000601f19601f8301169050919050565b7f4e487b7100000000000000000000000000000000000000000000000000000000600052604160045260246000fd5b6123e182612398565b810181811067ffffffffffffffff82111715612400576123ff6123a9565b5b80604052505050565b6000612413612226565b905061241f82826123d8565b919050565b600067ffffffffffffffff82111561243f5761243e6123a9565b5b61244882612398565b9050602081019050919050565b82818337600083830152505050565b600061247761247284612424565b612409565b90508281526020810184848401111561249357612492612393565b5b61249e848285612455565b509392505050565b600082601f8301126124bb576124ba612298565b5b81356124cb848260208601612464565b91505092915050565b600080604083850312156124eb576124ea612230565b5b60006124f985828601612283565b925050602083013567ffffffffffffffff81111561251a57612519612235565b5b612526858286016124a6565b9150509250929050565b6000819050919050565b61254381612530565b82525050565b600060208201905061255e600083018461253a565b92915050565b61256d81612530565b811461257857600080fd5b50565b60008135905061258a81612564565b92915050565b6000602082840312156125a6576125a5612230565b5b60006125b48482850161257b565b91505092915050565b6000819050919050565b6125d0816125bd565b82525050565b60006020820190506125eb60008301846125c7565b92915050565b6125fa816125bd565b811461260557600080fd5b50565b600081359050612617816125f1565b92915050565b6000806040838503121561263457612633612230565b5b60006126428582860161257b565b925050602061265385828601612608565b9150509250929050565b600081519050919050565b600082825260208201905092915050565b60005b8381101561269757808201518184015260208101905061267c565b838111156126a6576000848401525b50505050565b60006126b78261265d565b6126c18185612668565b93506126d1818560208601612679565b6126da81612398565b840191505092915050565b600060208201905081810360008301526126ff81846126ac565b905092915050565b6127108161225a565b82525050565b60006101008201905061272c600083018b612707565b612739602083018a612707565b61274660408301896125c7565b61275360608301886125c7565b61276060808301876125c7565b81810360a083015261277281866126ac565b905081810360c083015261278681856126ac565b905081810360e083015261279a81846126ac565b90509998505050505050505050565b600067ffffffffffffffff8211156127c4576127c36123a9565b5b602082029050602081019050919050565b60006127e86127e3846127a9565b612409565b9050808382526020820190506020840283018581111561280b5761280a6122a2565b5b835b8181101561283457806128208882612283565b84526020840193505060208101905061280d565b5050509392505050565b600082601f83011261285357612852612298565b5b81356128638482602086016127d5565b91505092915050565b60008083601f84011261288257612881612298565b5b8235905067ffffffffffffffff81111561289f5761289e61229d565b5b6020830191508360208202830111156128bb576128ba6122a2565b5b9250929050565b6000806000604084860312156128db576128da612230565b5b600084013567ffffffffffffffff8111156128f9576128f8612235565b5b6129058682870161283e565b935050602084013567ffffffffffffffff81111561292657612925612235565b5b6129328682870161286c565b92509250509250925092565b600081519050919050565b600082825260208201905092915050565b6000819050602082019050919050565b612973816125bd565b82525050565b6000612985838361296a565b60208301905092915050565b6000602082019050919050565b60006129a98261293e565b6129b38185612949565b93506129be8361295a565b8060005b838110156129ef5781516129d68882612979565b97506129e183612991565b9250506001810190506129c2565b5085935050505092915050565b60006020820190508181036000830152612a16818461299e565b905092915050565b60008060008060608587031215612a3857612a37612230565b5b6000612a4687828801612283565b9450506020612a5787828801612283565b935050604085013567ffffffffffffffff811115612a7857612a77612235565b5b612a84878288016122a7565b925092505092959194509250565b600081519050919050565b600082825260208201905092915050565b6000819050602082019050919050565b600082825260208201905092915050565b6000612ada8261265d565b612ae48185612abe565b9350612af4818560208601612679565b612afd81612398565b840191505092915050565b6000612b148383612acf565b905092915050565b6000602082019050919050565b6000612b3482612a92565b612b3e8185612a9d565b935083602082028501612b5085612aae565b8060005b85811015612b8c5784840389528151612b6d8582612b08565b9450612b7883612b1c565b925060208a01995050600181019050612b54565b50829750879550505050505092915050565b60006020820190508181036000830152612bb88184612b29565b905092915050565b6000602082019050612bd56000830184612707565b92915050565b600080600080600060808688031215612bf757612bf6612230565b5b6000612c0588828901612283565b955050602086013567ffffffffffffffff811115612c2657612c25612235565b5b612c32888289016122a7565b94509450506040612c4588828901612608565b9250506060612c5688828901612608565b9150509295509295909350565b600081519050919050565b600082825260208201905092915050565b6000819050602082019050919050565b612c988161225a565b82525050565b600061010083016000830151612cb76000860182612c8f565b506020830151612cca6020860182612c8f565b506040830151612cdd604086018261296a565b506060830151612cf0606086018261296a565b506080830151612d03608086018261296a565b5060a083015184820360a0860152612d1b8282612acf565b91505060c083015184820360c0860152612d358282612acf565b91505060e083015184820360e0860152612d4f8282612acf565b9150508091505092915050565b6000612d688383612c9e565b905092915050565b6000602082019050919050565b6000612d8882612c63565b612d928185612c6e565b935083602082028501612da485612c7f565b8060005b85811015612de05784840389528151612dc18582612d5c565b9450612dcc83612d70565b925060208a01995050600181019050612da8565b50829750879550505050505092915050565b60006020820190508181036000830152612e0c8184612d7d565b905092915050565b600080600060608486031215612e2d57612e2c612230565b5b6000612e3b86828701612283565b9350506020612e4c8682870161257b565b9250506040612e5d86828701612608565b9150509250925092565b60008060008060008060808789031215612e8457612e83612230565b5b6000612e9289828a01612283565b9650506020612ea389828a01612608565b955050604087013567ffffffffffffffff811115612ec457612ec3612235565b5b612ed089828a016122a7565b9450945050606087013567ffffffffffffffff811115612ef357612ef2612235565b5b612eff89828a016122a7565b92509250509295509295509295565b600060208284031215612f2457612f23612230565b5b6000612f3284828501612283565b91505092915050565b7f4e6f207065726d697373696f6e00000000000000000000000000000000000000600082015250565b6000612f71600d83612668565b9150612f7c82612f3b565b602082019050919050565b60006020820190508181036000830152612fa081612f64565b9050919050565b6000612fb38385612668565b9350612fc0838584612455565b612fc983612398565b840190509392505050565b6000604082019050612fe96000830186612707565b8181036020830152612ffc818486612fa7565b9050949350505050565b60008160601b9050919050565b600061301e82613006565b9050919050565b600061303082613013565b9050919050565b6130486130438261225a565b613025565b82525050565b600081905092915050565b60006130648261265d565b61306e818561304e565b935061307e818560208601612679565b80840191505092915050565b60006130968285613037565b6014820191506130a68284613059565b91508190509392505050565b600081519050919050565b600081905092915050565b60006130d3826130b2565b6130dd81856130bd565b93506130ed818560208601612679565b80840191505092915050565b600061310582846130c8565b915081905092915050565b60008151905061311f81612564565b92915050565b60006020828403121561313b5761313a612230565b5b600061314984828501613110565b91505092915050565b600061315e8286613059565b915061316a8285613059565b91506131768284613059565b9150819050949350505050565b7f4e487b7100000000000000000000000000000000000000000000000000000000600052602260045260246000fd5b600060028204905060018216806131ca57607f821691505b602082108114156131de576131dd613183565b5b50919050565b7f496e76616c696420746f6b656e732f746172676574436861696e49647320696e60008201527f7075740000000000000000000000000000000000000000000000000000000000602082015250565b6000613240602383612668565b915061324b826131e4565b604082019050919050565b6000602082019050818103600083015261326f81613233565b9050919050565b7f4e487b7100000000000000000000000000000000000000000000000000000000600052603260045260246000fd5b600080fd5b600080fd5b600080fd5b600080833560016020038436030381126132d1576132d06132a5565b5b80840192508235915067ffffffffffffffff8211156132f3576132f26132aa565b5b60208301925060018202360383131561330f5761330e6132af565b5b509250929050565b7f4e487b7100000000000000000000000000000000000000000000000000000000600052601160045260246000fd5b6000613351826125bd565b91507fffffffffffffffffffffffffffffffffffffffffffffffffffffffffffffffff82141561338457613383613317565b5b600182019050919050565b7f496e76616c696420696e70757400000000000000000000000000000000000000600082015250565b60006133c5600d83612668565b91506133d08261338f565b602082019050919050565b600060208201905081810360008301526133f4816133b8565b9050919050565b6000613406826125bd565b9150613411836125bd565b92508282101561342457613423613317565b5b828203905092915050565b7f546f6b656e206973206e6f7420737570706f727420696e20746861742063686160008201527f696e000000000000000000000000000000000000000000000000000000000000602082015250565b600061348b602283612668565b91506134968261342f565b604082019050919050565b600060208201905081810360008301526134ba8161347e565b9050919050565b600060808201905081810360008301526134db81876126ac565b90506134ea6020830186612707565b6134f76040830185612707565b61350460608301846125c7565b95945050505050565b7f4f776e61626c653a206e6577206f776e657220697320746865207a65726f206160008201527f6464726573730000000000000000000000000000000000000000000000000000602082015250565b6000613569602683612668565b91506135748261350d565b604082019050919050565b600060208201905081810360008301526135988161355c565b9050919050565b7f3078000000000000000000000000000000000000000000000000000000000000600082015250565b60006135d560028361304e565b91506135e08261359f565b600282019050919050565b6000819050919050565b61360661360182612530565b6135eb565b82525050565b6000613617826135c8565b915061362382856135f5565b60208201915061363382846135f5565b6020820191508190509392505050565b7f4e487b7100000000000000000000000000000000000000000000000000000000600052601260045260246000fd5b600061367d826125bd565b9150613688836125bd565b92508261369857613697613643565b5b828204905092915050565b60006136ae826125bd565b91506136b9836125bd565b9250826136c9576136c8613643565b5b828206905092915050565b60006136df826125bd565b91506136ea836125bd565b9250827fffffffffffffffffffffffffffffffffffffffffffffffffffffffffffffffff0382111561371f5761371e613317565b5b828201905092915050565b7f4f776e61626c653a2063616c6c6572206973206e6f7420746865206f776e6572600082015250565b6000613760602083612668565b915061376b8261372a565b602082019050919050565b6000602082019050818103600083015261378f81613753565b9050919050565b60006060820190506137ab6000830186612707565b6137b86020830185612707565b6137c560408301846125c7565b949350505050565b60006137d8826125bd565b91506137e3836125bd565b9250817fffffffffffffffffffffffffffffffffffffffffffffffffffffffffffffffff048311821515161561381c5761381b613317565b5b828202905092915050565b7f4e487b7100000000000000000000000000000000000000000000000000000000600052603160045260246000fd5b61385f8161235d565b811461386a57600080fd5b50565b60008151905061387c81613856565b92915050565b60006020828403121561389857613897612230565b5b60006138a68482850161386d565b91505092915050565b7f5361666545524332303a204552433230206f7065726174696f6e20646964206e60008201527f6f74207375636365656400000000000000000000000000000000000000000000602082015250565b600061390b602a83612668565b9150613916826138af565b604082019050919050565b6000602082019050818103600083015261393a816138fe565b9050919050565b7f416464726573733a20696e73756666696369656e742062616c616e636520666f60008201527f722063616c6c0000000000000000000000000000000000000000000000000000602082015250565b600061399d602683612668565b91506139a882613941565b604082019050919050565b600060208201905081810360008301526139cc81613990565b9050919050565b7f416464726573733a2063616c6c20746f206e6f6e2d636f6e7472616374000000600082015250565b6000613a09601d83612668565b9150613a14826139d3565b602082019050919050565b60006020820190508181036000830152613a38816139fc565b905091905056fea2646970667358221220e52275daf0c3587218e5ff074e4504e652623bd2e9e0e7f5bd4138d49058698864736f6c63430008090033",
  "linkReferences": {},
  "deployedLinkReferences": {}
}