{
  "_format": "hh-sol-artifact-1",
  "contractName": "BridgeOut",
  "sourceName": "contracts/BridgeOut.sol",
  "abi": [
    {
      "inputs": [
        {
          "internalType": "address",
          "name": "_merkleTree",
          "type": "address"
        },
        {
          "internalType": "address",
          "name": "_regiment",
          "type": "address"
        }
      ],
      "stateMutability": "nonpayable",
      "type": "constructor"
    },
    {
      "anonymous": false,
      "inputs": [
        {
          "indexed": false,
          "internalType": "bytes32",
          "name": "swapId",
          "type": "bytes32"
        },
        {
          "indexed": false,
          "internalType": "address",
          "name": "transmiter",
          "type": "address"
        },
        {
          "indexed": false,
          "internalType": "uint256",
          "name": "receiptIndex",
          "type": "uint256"
        },
        {
          "indexed": false,
          "internalType": "bytes32",
          "name": "receiptHash",
          "type": "bytes32"
        }
      ],
      "name": "NewTransmission",
      "type": "event"
    },
    {
      "anonymous": false,
      "inputs": [
        {
          "indexed": true,
          "internalType": "address",
          "name": "previousOwner",
          "type": "address"
        },
        {
          "indexed": true,
          "internalType": "address",
          "name": "newOwner",
          "type": "address"
        }
      ],
      "name": "OwnershipTransferred",
      "type": "event"
    },
    {
      "anonymous": false,
      "inputs": [
        {
          "indexed": false,
          "internalType": "bytes32",
          "name": "swapId",
          "type": "bytes32"
        },
        {
          "indexed": false,
          "internalType": "address",
          "name": "token",
          "type": "address"
        },
        {
          "indexed": false,
          "internalType": "string",
          "name": "chainId",
          "type": "string"
        }
      ],
      "name": "SwapPairAdded",
      "type": "event"
    },
    {
      "anonymous": false,
      "inputs": [
        {
          "indexed": false,
          "internalType": "address",
          "name": "receiveAddress",
          "type": "address"
        },
        {
          "indexed": false,
          "internalType": "address",
          "name": "token",
          "type": "address"
        },
        {
          "indexed": false,
          "internalType": "uint256",
          "name": "amount",
          "type": "uint256"
        }
      ],
      "name": "TokenSwapEvent",
      "type": "event"
    },
    {
      "inputs": [
        {
          "internalType": "address",
          "name": "token",
          "type": "address"
        },
        {
          "internalType": "string",
          "name": "chainId",
          "type": "string"
        }
      ],
      "name": "_generateTokenKey",
      "outputs": [
        {
          "internalType": "bytes32",
          "name": "",
          "type": "bytes32"
        }
      ],
      "stateMutability": "pure",
      "type": "function"
    },
    {
      "inputs": [
        {
          "internalType": "string",
          "name": "_receiptId",
          "type": "string"
        },
        {
          "internalType": "uint256",
          "name": "_amount",
          "type": "uint256"
        },
        {
          "internalType": "address",
          "name": "_receiverAddress",
          "type": "address"
        }
      ],
      "name": "computeLeafHash",
      "outputs": [
        {
          "internalType": "bytes32",
          "name": "_leafHash",
          "type": "bytes32"
        }
      ],
      "stateMutability": "pure",
      "type": "function"
    },
    {
      "inputs": [
        {
          "components": [
            {
              "internalType": "address",
              "name": "token",
              "type": "address"
            },
            {
              "components": [
                {
                  "internalType": "uint64",
                  "name": "originShare",
                  "type": "uint64"
                },
                {
                  "internalType": "uint64",
                  "name": "targetShare",
                  "type": "uint64"
                }
              ],
              "internalType": "struct BridgeOut.SwapRatio",
              "name": "swapRatio",
              "type": "tuple"
            }
          ],
          "internalType": "struct BridgeOut.SwapTargetToken[]",
          "name": "targetTokens",
          "type": "tuple[]"
        },
        {
          "internalType": "string",
          "name": "fromChainId",
          "type": "string"
        },
        {
          "internalType": "bytes32",
          "name": "regimentId",
          "type": "bytes32"
        }
      ],
      "name": "createSwap",
      "outputs": [],
      "stateMutability": "nonpayable",
      "type": "function"
    },
    {
      "inputs": [
        {
          "internalType": "bytes32",
          "name": "swapHashId",
          "type": "bytes32"
        },
        {
          "internalType": "address",
          "name": "tokens",
          "type": "address"
        },
        {
          "internalType": "uint256",
          "name": "amounts",
          "type": "uint256"
        }
      ],
      "name": "deposit",
      "outputs": [],
      "stateMutability": "nonpayable",
      "type": "function"
    },
    {
      "inputs": [
        {
          "internalType": "address[]",
          "name": "tokens",
          "type": "address[]"
        },
        {
          "internalType": "string[]",
          "name": "fromChainIds",
          "type": "string[]"
        }
      ],
      "name": "getReceiveReceiptIndex",
      "outputs": [
        {
          "internalType": "uint256[]",
          "name": "",
          "type": "uint256[]"
        }
      ],
      "stateMutability": "view",
      "type": "function"
    },
    {
      "inputs": [
        {
          "internalType": "address",
          "name": "token",
          "type": "address"
        },
        {
          "internalType": "string",
          "name": "fromChainId",
          "type": "string"
        },
        {
          "internalType": "uint256",
          "name": "fromIndex",
          "type": "uint256"
        },
        {
          "internalType": "uint256",
          "name": "endIndex",
          "type": "uint256"
        }
      ],
      "name": "getReceivedReceiptInfos",
      "outputs": [
        {
          "components": [
            {
              "internalType": "address",
              "name": "asset",
              "type": "address"
            },
            {
              "internalType": "address",
              "name": "targetAddress",
              "type": "address"
            },
            {
              "internalType": "uint256",
              "name": "amount",
              "type": "uint256"
            },
            {
              "internalType": "uint256",
              "name": "blockHeight",
              "type": "uint256"
            },
            {
              "internalType": "uint256",
              "name": "blockTime",
              "type": "uint256"
            },
            {
              "internalType": "string",
              "name": "fromChainId",
              "type": "string"
            },
            {
              "internalType": "string",
              "name": "receiptId",
              "type": "string"
            }
          ],
          "internalType": "struct BridgeOut.ReceivedReceipt[]",
          "name": "_receipts",
          "type": "tuple[]"
        }
      ],
      "stateMutability": "view",
      "type": "function"
    },
    {
      "inputs": [
        {
          "internalType": "address",
          "name": "token",
          "type": "address"
        },
        {
          "internalType": "string",
          "name": "fromChainId",
          "type": "string"
        }
      ],
      "name": "getSwapId",
      "outputs": [
        {
          "internalType": "bytes32",
          "name": "",
          "type": "bytes32"
        }
      ],
      "stateMutability": "view",
      "type": "function"
    },
    {
      "inputs": [
        {
          "internalType": "bytes32",
          "name": "swapId",
          "type": "bytes32"
        }
      ],
      "name": "getSwapInfo",
      "outputs": [
        {
          "components": [
            {
              "internalType": "bytes32",
              "name": "swapId",
              "type": "bytes32"
            },
            {
              "internalType": "string",
              "name": "fromChainId",
              "type": "string"
            },
            {
              "components": [
                {
                  "internalType": "address",
                  "name": "token",
                  "type": "address"
                },
                {
                  "components": [
                    {
                      "internalType": "uint64",
                      "name": "originShare",
                      "type": "uint64"
                    },
                    {
                      "internalType": "uint64",
                      "name": "targetShare",
                      "type": "uint64"
                    }
                  ],
                  "internalType": "struct BridgeOut.SwapRatio",
                  "name": "swapRatio",
                  "type": "tuple"
                }
              ],
              "internalType": "struct BridgeOut.SwapTargetToken[]",
              "name": "swapTargetTokenList",
              "type": "tuple[]"
            },
            {
              "internalType": "bytes32",
              "name": "regimentId",
              "type": "bytes32"
            },
            {
              "internalType": "bytes32",
              "name": "spaceId",
              "type": "bytes32"
            }
          ],
          "internalType": "struct BridgeOut.SwapInfo",
          "name": "swapInfo",
          "type": "tuple"
        }
      ],
      "stateMutability": "view",
      "type": "function"
    },
    {
      "inputs": [
        {
          "internalType": "bytes32",
          "name": "receiptHash",
          "type": "bytes32"
        }
      ],
      "name": "isReceiptRecorded",
      "outputs": [
        {
          "internalType": "bool",
          "name": "",
          "type": "bool"
        }
      ],
      "stateMutability": "view",
      "type": "function"
    },
    {
      "inputs": [
        {
          "internalType": "bytes32",
          "name": "spaceId",
          "type": "bytes32"
        },
        {
          "internalType": "string",
          "name": "receiptId",
          "type": "string"
        },
        {
          "internalType": "uint256",
          "name": "amount",
          "type": "uint256"
        },
        {
          "internalType": "address",
          "name": "receiverAddress",
          "type": "address"
        }
      ],
      "name": "merkleTreeVerify",
      "outputs": [
        {
          "internalType": "bytes32",
          "name": "",
          "type": "bytes32"
        }
      ],
      "stateMutability": "view",
      "type": "function"
    },
    {
      "inputs": [],
      "name": "owner",
      "outputs": [
        {
          "internalType": "address",
          "name": "",
          "type": "address"
        }
      ],
      "stateMutability": "view",
      "type": "function"
    },
    {
      "inputs": [],
      "name": "renounceOwnership",
      "outputs": [],
      "stateMutability": "nonpayable",
      "type": "function"
    },
    {
      "inputs": [
        {
          "internalType": "bytes32",
          "name": "swapId",
          "type": "bytes32"
        },
        {
          "internalType": "string",
          "name": "receiptId",
          "type": "string"
        },
        {
          "internalType": "uint256",
          "name": "amount",
          "type": "uint256"
        },
        {
          "internalType": "address",
          "name": "receiverAddress",
          "type": "address"
        }
      ],
      "name": "swapToken",
      "outputs": [],
      "stateMutability": "nonpayable",
      "type": "function"
    },
    {
      "inputs": [
        {
          "internalType": "address",
          "name": "newOwner",
          "type": "address"
        }
      ],
      "name": "transferOwnership",
      "outputs": [],
      "stateMutability": "nonpayable",
      "type": "function"
    },
    {
      "inputs": [
        {
          "internalType": "bytes32",
          "name": "swapHashId",
          "type": "bytes32"
        },
        {
          "internalType": "bytes",
          "name": "_report",
          "type": "bytes"
        },
        {
          "internalType": "bytes32[]",
          "name": "_rs",
          "type": "bytes32[]"
        },
        {
          "internalType": "bytes32[]",
          "name": "_ss",
          "type": "bytes32[]"
        },
        {
          "internalType": "bytes32",
          "name": "_rawVs",
          "type": "bytes32"
        }
      ],
      "name": "transmit",
      "outputs": [],
      "stateMutability": "nonpayable",
      "type": "function"
    },
    {
      "inputs": [
        {
          "internalType": "bytes32",
          "name": "swapHashId",
          "type": "bytes32"
        },
        {
          "internalType": "address",
          "name": "token",
          "type": "address"
        },
        {
          "internalType": "uint256",
          "name": "amount",
          "type": "uint256"
        }
      ],
      "name": "withdraw",
      "outputs": [],
      "stateMutability": "nonpayable",
      "type": "function"
    }
  ],
  "bytecode": "0x60806040523480156200001157600080fd5b5060405162005e7a38038062005e7a833981810160405281019062000037919062000217565b620000576200004b620000e160201b60201c565b620000e960201b60201c565b81600160006101000a81548173ffffffffffffffffffffffffffffffffffffffff021916908373ffffffffffffffffffffffffffffffffffffffff16021790555080600260006101000a81548173ffffffffffffffffffffffffffffffffffffffff021916908373ffffffffffffffffffffffffffffffffffffffff16021790555050506200025e565b600033905090565b60008060009054906101000a900473ffffffffffffffffffffffffffffffffffffffff169050816000806101000a81548173ffffffffffffffffffffffffffffffffffffffff021916908373ffffffffffffffffffffffffffffffffffffffff1602179055508173ffffffffffffffffffffffffffffffffffffffff168173ffffffffffffffffffffffffffffffffffffffff167f8be0079c531659141344cd1fd0a4f28419497f9722a3daafe3b4186f6b6457e060405160405180910390a35050565b600080fd5b600073ffffffffffffffffffffffffffffffffffffffff82169050919050565b6000620001df82620001b2565b9050919050565b620001f181620001d2565b8114620001fd57600080fd5b50565b6000815190506200021181620001e6565b92915050565b60008060408385031215620002315762000230620001ad565b5b6000620002418582860162000200565b9250506020620002548582860162000200565b9150509250929050565b615c0c806200026e6000396000f3fe608060405234801561001057600080fd5b50600436106101005760003560e01c80638a0bb6f911610097578063c045e88711610066578063c045e887146102d1578063cb2b48a5146102ed578063d954863c1461031d578063f2fde38b1461033957610100565b80638a0bb6f9146102375780638da5cb5b14610267578063a6fb97d114610285578063b33ff450146102a157610100565b80634c038c45116100d35780634c038c45146101b157806368591baa146101e1578063715018a6146101fd57806371d0c5ca1461020757610100565b806303b1ccdb146101055780632d0fc6b4146101215780633f19efbe14610151578063446f95b414610181575b600080fd5b61011f600480360381019061011a9190613512565b610355565b005b61013b6004803603810190610136919061359a565b610d0f565b604051610148919061382b565b60405180910390f35b61016b600480360381019061016691906139e1565b610f19565b6040516101789190613b1b565b60405180910390f35b61019b60048036038101906101969190613bf2565b6110a0565b6040516101a89190613c5d565b60405180910390f35b6101cb60048036038101906101c6919061359a565b61111b565b6040516101d89190613c93565b60405180910390f35b6101fb60048036038101906101f69190613d5a565b61113a565b005b610205611662565b005b610221600480360381019061021c9190613e36565b611676565b60405161022e9190613c5d565b60405180910390f35b610251600480360381019061024c9190613e96565b6116e7565b60405161025e9190614083565b60405180910390f35b61026f611aab565b60405161027c91906140b4565b60405180910390f35b61029f600480360381019061029a91906140cf565b611ad4565b005b6102bb60048036038101906102b69190613512565b611dfb565b6040516102c89190613c5d565b60405180910390f35b6102eb60048036038101906102e69190614178565b6120ed565b005b6103076004803603810190610302919061420d565b61252d565b6040516103149190613c5d565b60405180910390f35b610337600480360381019061033291906140cf565b612706565b005b610353600480360381019061034e919061427c565b612a6d565b005b8073ffffffffffffffffffffffffffffffffffffffff163373ffffffffffffffffffffffffffffffffffffffff16146103c3576040517f08c379a00000000000000000000000000000000000000000000000000000000081526004016103ba9061432c565b60405180910390fd5b6000600560008781526020019081526020016000206004015490506000801b811415610424576040517f08c379a000000000000000000000000000000000000000000000000000000000815260040161041b90614398565b60405180910390fd5b60008311610467576040517f08c379a000000000000000000000000000000000000000000000000000000000815260040161045e90614404565b60405180910390fd5b6000600560008881526020019081526020016000209050600061048d8388888888611dfb565b90506000600960008381526020019081526020016000209050600073ffffffffffffffffffffffffffffffffffffffff168160000160009054906101000a900473ffffffffffffffffffffffffffffffffffffffff1673ffffffffffffffffffffffffffffffffffffffff1614610539576040517f08c379a000000000000000000000000000000000000000000000000000000000815260040161053090614470565b60405180910390fd5b848160000160006101000a81548173ffffffffffffffffffffffffffffffffffffffff021916908373ffffffffffffffffffffffffffffffffffffffff160217905550600083600201805480602002602001604051908101604052809291908181526020016000905b828210156106a257838290600052602060002090600202016040518060400160405290816000820160009054906101000a900473ffffffffffffffffffffffffffffffffffffffff1673ffffffffffffffffffffffffffffffffffffffff1673ffffffffffffffffffffffffffffffffffffffff168152602001600182016040518060400160405290816000820160009054906101000a900467ffffffffffffffff1667ffffffffffffffff1667ffffffffffffffff1681526020016000820160089054906101000a900467ffffffffffffffff1667ffffffffffffffff1667ffffffffffffffff168152505081525050815260200190600101906105a2565b50505050905060005b81518110156109605760008560020182815481106106cc576106cb614490565b5b906000526020600020906002020160000160009054906101000a900473ffffffffffffffffffffffffffffffffffffffff1690506000600760008e815260200190815260200160002060008373ffffffffffffffffffffffffffffffffffffffff1673ffffffffffffffffffffffffffffffffffffffff168152602001908152602001600020905060006107d385858151811061076c5761076b614490565b5b6020026020010151602001516000015167ffffffffffffffff166107c587878151811061079c5761079b614490565b5b6020026020010151602001516020015167ffffffffffffffff168e612af190919063ffffffff16565b612b0790919063ffffffff16565b9050816000015481111561081c576040517f08c379a00000000000000000000000000000000000000000000000000000000081526004016108139061450b565b60405180910390fd5b610833818360000154612b1d90919063ffffffff16565b82600001819055508273ffffffffffffffffffffffffffffffffffffffff1663a9059cbb8b836040518363ffffffff1660e01b815260040161087692919061453a565b602060405180830381600087803b15801561089057600080fd5b505af11580156108a4573d6000803e3d6000fd5b505050506040513d601f19601f820116820180604052508101906108c8919061458f565b50808660010160008573ffffffffffffffffffffffffffffffffffffffff1673ffffffffffffffffffffffffffffffffffffffff168152602001908152602001600020819055507fb0c1e4d18ea737b756410ab0296768c15a87c12eeb368f360ecc5be61a11b4db8a8483604051610942939291906145bc565b60405180910390a1505050808061095890614622565b9150506106ab565b506000610a538560020160008154811061097d5761097c614490565b5b906000526020600020906002020160000160009054906101000a900473ffffffffffffffffffffffffffffffffffffffff16600560008e815260200190815260200160002060010180546109d09061469a565b80601f01602080910402602001604051908101604052809291908181526020018280546109fc9061469a565b8015610a495780601f10610a1e57610100808354040283529160200191610a49565b820191906000526020600020905b815481529060010190602001808311610a2c57829003601f168201915b50505050506110a0565b9050600a60008281526020019081526020016000206040518060e0016040528087600201600081548110610a8a57610a89614490565b5b906000526020600020906002020160000160009054906101000a900473ffffffffffffffffffffffffffffffffffffffff1673ffffffffffffffffffffffffffffffffffffffff1681526020018973ffffffffffffffffffffffffffffffffffffffff1681526020018a8152602001438152602001428152602001600560008f81526020019081526020016000206001018054610b269061469a565b80601f0160208091040260200160405190810160405280929190818152602001828054610b529061469a565b8015610b9f5780601f10610b7457610100808354040283529160200191610b9f565b820191906000526020600020905b815481529060010190602001808311610b8257829003601f168201915b505050505081526020018c8c8080601f016020809104026020016040519081016040528093929190818152602001838380828437600081840152601f19601f82011690508083019250505050505050815250908060018154018082558091505060019003906000526020600020906007020160009091909190915060008201518160000160006101000a81548173ffffffffffffffffffffffffffffffffffffffff021916908373ffffffffffffffffffffffffffffffffffffffff16021790555060208201518160010160006101000a81548173ffffffffffffffffffffffffffffffffffffffff021916908373ffffffffffffffffffffffffffffffffffffffff16021790555060408201518160020155606082015181600301556080820151816004015560a0820151816005019080519060200190610ce2929190613205565b5060c0820151816006019080519060200190610cff929190613205565b5050505050505050505050505050565b610d1761328b565b600560008381526020019081526020016000206040518060a001604052908160008201548152602001600182018054610d4f9061469a565b80601f0160208091040260200160405190810160405280929190818152602001828054610d7b9061469a565b8015610dc85780601f10610d9d57610100808354040283529160200191610dc8565b820191906000526020600020905b815481529060010190602001808311610dab57829003601f168201915b5050505050815260200160028201805480602002602001604051908101604052809291908181526020016000905b82821015610ef657838290600052602060002090600202016040518060400160405290816000820160009054906101000a900473ffffffffffffffffffffffffffffffffffffffff1673ffffffffffffffffffffffffffffffffffffffff1673ffffffffffffffffffffffffffffffffffffffff168152602001600182016040518060400160405290816000820160009054906101000a900467ffffffffffffffff1667ffffffffffffffff1667ffffffffffffffff1681526020016000820160089054906101000a900467ffffffffffffffff1667ffffffffffffffff1667ffffffffffffffff16815250508152505081526020019060010190610df6565b505050508152602001600382015481526020016004820154815250509050919050565b606082829050845114610f61576040517f08c379a0000000000000000000000000000000000000000000000000000000008152600401610f589061473e565b60405180910390fd5b6000845167ffffffffffffffff811115610f7e57610f7d61384d565b5b604051908082528060200260200182016040528015610fac5781602001602082028036833780820191505090505b50905060005b8551811015611094576000611048878381518110610fd357610fd2614490565b5b6020026020010151878785818110610fee57610fed614490565b5b9050602002810190611000919061476d565b8080601f016020809104026020016040519081016040528093929190818152602001838380828437600081840152601f19601f820116905080830192505050505050506110a0565b9050600a60008281526020019081526020016000208054905083838151811061107457611073614490565b5b60200260200101818152505050808061108c90614622565b915050610fb2565b50809150509392505050565b6000600283836040516020016110b7929190614854565b6040516020818303038152906040526040516110d391906148c3565b602060405180830381855afa1580156110f0573d6000803e3d6000fd5b5050506040513d601f19601f8201168201806040525081019061111391906148ef565b905092915050565b6000806008600084815260200190815260200160002054119050919050565b6000600560008a81526020019081526020016000209050600260009054906101000a900473ffffffffffffffffffffffffffffffffffffffff1673ffffffffffffffffffffffffffffffffffffffff166323c849858260030154336040518363ffffffff1660e01b81526004016111b292919061491c565b60206040518083038186803b1580156111ca57600080fd5b505afa1580156111de573d6000803e3d6000fd5b505050506040513d601f19601f82011682018060405250810190611202919061458f565b611241576040517f08c379a000000000000000000000000000000000000000000000000000000000815260040161123890614991565b60405180910390fd5b600088886040516112539291906149d6565b6040518091039020905060005b87879050811015611419576000600183601b87856020811061128557611284614490565b5b1a60f81b60f81c61129691906149fc565b8b8b868181106112a9576112a8614490565b5b905060200201358a8a878181106112c3576112c2614490565b5b90506020020135604051600081526020016040526040516112e79493929190614a42565b6020604051602081039080840390855afa158015611309573d6000803e3d6000fd5b505050602060405103519050600260009054906101000a900473ffffffffffffffffffffffffffffffffffffffff1673ffffffffffffffffffffffffffffffffffffffff166323c849858560030154836040518363ffffffff1660e01b815260040161137692919061491c565b60206040518083038186803b15801561138e57600080fd5b505afa1580156113a2573d6000803e3d6000fd5b505050506040513d601f19601f820116820180604052508101906113c6919061458f565b611405576040517f08c379a00000000000000000000000000000000000000000000000000000000081526004016113fc90614ad3565b60405180910390fd5b50808061141190614622565b915050611260565b5060008061146a8b8b8080601f016020809104026020016040519081016040528093929190818152602001838380828437600081840152601f19601f82011690508083019250505050505050612b33565b915091506000600167ffffffffffffffff81111561148b5761148a61384d565b5b6040519080825280602002602001820160405280156114b95781602001602082028036833780820191505090505b50905081816000815181106114d1576114d0614490565b5b6020026020010181815250506000600860008481526020019081526020016000205414611533576040517f08c379a000000000000000000000000000000000000000000000000000000000815260040161152a90614b3f565b60405180910390fd5b6000600160009054906101000a900473ffffffffffffffffffffffffffffffffffffffff1673ffffffffffffffffffffffffffffffffffffffff16637d9778368760040154846040518363ffffffff1660e01b8152600401611596929190614c0e565b602060405180830381600087803b1580156115b057600080fd5b505af11580156115c4573d6000803e3d6000fd5b505050506040513d601f19601f820116820180604052508101906115e89190614c53565b90506115fe600182612b5e90919063ffffffff16565b60086000858152602001908152602001600020819055507f6319bf84e3d2c97dd1991c07818c14950ceb6f48ce6d85f063be3c60905ea1b98e33868660405161164a9493929190614c80565b60405180910390a15050505050505050505050505050565b61166a612b74565b6116746000612bf2565b565b6000806116c78585858080601f016020809104026020016040519081016040528093929190818152602001838380828437600081840152601f19601f820116905080830192505050505050506110a0565b905060066000828152602001908152602001600020549150509392505050565b606060006117398787878080601f016020809104026020016040519081016040528093929190818152602001838380828437600081840152601f19601f820116905080830192505050505050506110a0565b9050600a60008281526020019081526020016000208054905083111580156117615750600084115b6117a0576040517f08c379a000000000000000000000000000000000000000000000000000000000815260040161179790614d11565b60405180910390fd5b60006117c860016117ba8787612b1d90919063ffffffff16565b612b5e90919063ffffffff16565b90508067ffffffffffffffff8111156117e4576117e361384d565b5b60405190808252806020026020018201604052801561181d57816020015b61180a6132c3565b8152602001906001900390816118025790505b50925060005b81811015611a9f57600a60008481526020019081526020016000206001878361184c9190614d31565b6118569190614d87565b8154811061186757611866614490565b5b90600052602060002090600702016040518060e00160405290816000820160009054906101000a900473ffffffffffffffffffffffffffffffffffffffff1673ffffffffffffffffffffffffffffffffffffffff1673ffffffffffffffffffffffffffffffffffffffff1681526020016001820160009054906101000a900473ffffffffffffffffffffffffffffffffffffffff1673ffffffffffffffffffffffffffffffffffffffff1673ffffffffffffffffffffffffffffffffffffffff16815260200160028201548152602001600382015481526020016004820154815260200160058201805461195a9061469a565b80601f01602080910402602001604051908101604052809291908181526020018280546119869061469a565b80156119d35780601f106119a8576101008083540402835291602001916119d3565b820191906000526020600020905b8154815290600101906020018083116119b657829003601f168201915b505050505081526020016006820180546119ec9061469a565b80601f0160208091040260200160405190810160405280929190818152602001828054611a189061469a565b8015611a655780601f10611a3a57610100808354040283529160200191611a65565b820191906000526020600020905b815481529060010190602001808311611a4857829003601f168201915b505050505081525050848281518110611a8157611a80614490565b5b60200260200101819052508080611a9790614622565b915050611823565b50505095945050505050565b60008060009054906101000a900473ffffffffffffffffffffffffffffffffffffffff16905090565b6000600560008581526020019081526020016000209050600260009054906101000a900473ffffffffffffffffffffffffffffffffffffffff1673ffffffffffffffffffffffffffffffffffffffff16639a96679e8260030154336040518363ffffffff1660e01b8152600401611b4c92919061491c565b60206040518083038186803b158015611b6457600080fd5b505afa158015611b78573d6000803e3d6000fd5b505050506040513d601f19601f82011682018060405250810190611b9c919061458f565b611bdb576040517f08c379a0000000000000000000000000000000000000000000000000000000008152600401611bd290614e07565b60405180910390fd5b611d0c8382600201805480602002602001604051908101604052809291908181526020016000905b82821015611d0357838290600052602060002090600202016040518060400160405290816000820160009054906101000a900473ffffffffffffffffffffffffffffffffffffffff1673ffffffffffffffffffffffffffffffffffffffff1673ffffffffffffffffffffffffffffffffffffffff168152602001600182016040518060400160405290816000820160009054906101000a900467ffffffffffffffff1667ffffffffffffffff1667ffffffffffffffff1681526020016000820160089054906101000a900467ffffffffffffffff1667ffffffffffffffff1667ffffffffffffffff16815250508152505081526020019060010190611c03565b50505050612cb6565b50611d73826007600087815260200190815260200160002060008673ffffffffffffffffffffffffffffffffffffffff1673ffffffffffffffffffffffffffffffffffffffff16815260200190815260200160002060000154612b1d90919063ffffffff16565b6007600086815260200190815260200160002060008573ffffffffffffffffffffffffffffffffffffffff1673ffffffffffffffffffffffffffffffffffffffff16815260200190815260200160002060000181905550611df533838573ffffffffffffffffffffffffffffffffffffffff16612d429092919063ffffffff16565b50505050565b60006060806000611e5188888080601f016020809104026020016040519081016040528093929190818152602001838380828437600081840152601f19601f82011690508083019250505050505050878761252d565b90506000611e7c60016008600085815260200190815260200160002054612b1d90919063ffffffff16565b9050600160009054906101000a900473ffffffffffffffffffffffffffffffffffffffff1673ffffffffffffffffffffffffffffffffffffffff16631b32d71a8b836040518363ffffffff1660e01b8152600401611edb929190614e27565b60006040518083038186803b158015611ef357600080fd5b505afa158015611f07573d6000803e3d6000fd5b505050506040513d6000823e3d601f19601f82011682018060405250810190611f309190614fd6565b909192509091508094508195505050600160009054906101000a900473ffffffffffffffffffffffffffffffffffffffff1673ffffffffffffffffffffffffffffffffffffffff16631669b10e8b600160009054906101000a900473ffffffffffffffffffffffffffffffffffffffff1673ffffffffffffffffffffffffffffffffffffffff1663fd2973ca8e866040518363ffffffff1660e01b8152600401611fdb929190614e27565b60206040518083038186803b158015611ff357600080fd5b505afa158015612007573d6000803e3d6000fd5b505050506040513d601f19601f8201168201806040525081019061202b9190614c53565b8588886040518663ffffffff1660e01b815260040161204e959493929190615133565b60206040518083038186803b15801561206657600080fd5b505afa15801561207a573d6000803e3d6000fd5b505050506040513d601f19601f8201168201806040525081019061209e919061458f565b6120dd576040517f08c379a00000000000000000000000000000000000000000000000000000000081526004016120d4906151e0565b60405180910390fd5b8194505050505095945050505050565b6000600260009054906101000a900473ffffffffffffffffffffffffffffffffffffffff1673ffffffffffffffffffffffffffffffffffffffff166376e2775583336040518363ffffffff1660e01b815260040161214c92919061491c565b60206040518083038186803b15801561216457600080fd5b505afa158015612178573d6000803e3d6000fd5b505050506040513d601f19601f8201168201806040525081019061219c919061458f565b9050806121de576040517f08c379a00000000000000000000000000000000000000000000000000000000081526004016121d590614e07565b60405180910390fd5b6000868660008181106121f4576121f3614490565b5b905060600201600001602081019061220c919061427c565b9050600061225e8287878080601f016020809104026020016040519081016040528093929190818152602001838380828437600081840152601f19601f820116905080830192505050505050506110a0565b9050612274816003612dc890919063ffffffff16565b156122b4576040517f08c379a00000000000000000000000000000000000000000000000000000000081526004016122ab9061524c565b60405180910390fd5b6000600160009054906101000a900473ffffffffffffffffffffffffffffffffffffffff1673ffffffffffffffffffffffffffffffffffffffff16632a99732a86600a6040518363ffffffff1660e01b81526004016123149291906152b1565b602060405180830381600087803b15801561232e57600080fd5b505af1158015612342573d6000803e3d6000fd5b505050506040513d601f19601f8201168201806040525081019061236691906148ef565b90506000803660405161237a9291906149d6565b6040518091039020905085600560008381526020019081526020016000206003018190555081600560008381526020019081526020016000206004018190555080600560008381526020019081526020016000206000018190555087876005600084815260200190815260200160002060010191906123fa92919061332c565b5061240f836003612ddf90919063ffffffff16565b5080600660008581526020019081526020016000208190555060005b8a8a90508110156124e35761246a8b8b8381811061244c5761244b614490565b5b905060600201602001803603810190612465919061535b565b612df6565b600560008381526020019081526020016000206002018b8b8381811061249357612492614490565b5b905060600201908060018154018082558091505060019003906000526020600020906002020160009091909190915081816124ce91906155d4565b505080806124db90614622565b91505061242b565b507f909c724b9d08d0463115fc7fa6d2c8e51e6eafa867725be497bdb9a53a6cac4f81858a8a604051612519949392919061560f565b60405180910390a150505050505050505050565b600080600285604051602001612543919061564f565b60405160208183030381529060405260405161255f91906148c3565b602060405180830381855afa15801561257c573d6000803e3d6000fd5b5050506040513d601f19601f8201168201806040525081019061259f91906148ef565b905060006002856040516020016125b69190615687565b6040516020818303038152906040526040516125d291906148c3565b602060405180830381855afa1580156125ef573d6000803e3d6000fd5b5050506040513d601f19601f8201168201806040525081019061261291906148ef565b9050600060028560405160200161262991906156a2565b60405160208183030381529060405260405161264591906148c3565b602060405180830381855afa158015612662573d6000803e3d6000fd5b5050506040513d601f19601f8201168201806040525081019061268591906148ef565b9050600283838360405160200161269e939291906156bd565b6040516020818303038152906040526040516126ba91906148c3565b602060405180830381855afa1580156126d7573d6000803e3d6000fd5b5050506040513d601f19601f820116820180604052508101906126fa91906148ef565b93505050509392505050565b6000600560008581526020019081526020016000209050600260009054906101000a900473ffffffffffffffffffffffffffffffffffffffff1673ffffffffffffffffffffffffffffffffffffffff16639a96679e8260030154336040518363ffffffff1660e01b815260040161277e92919061491c565b60206040518083038186803b15801561279657600080fd5b505afa1580156127aa573d6000803e3d6000fd5b505050506040513d601f19601f820116820180604052508101906127ce919061458f565b61280d576040517f08c379a000000000000000000000000000000000000000000000000000000000815260040161280490614e07565b60405180910390fd5b61293e8382600201805480602002602001604051908101604052809291908181526020016000905b8282101561293557838290600052602060002090600202016040518060400160405290816000820160009054906101000a900473ffffffffffffffffffffffffffffffffffffffff1673ffffffffffffffffffffffffffffffffffffffff1673ffffffffffffffffffffffffffffffffffffffff168152602001600182016040518060400160405290816000820160009054906101000a900467ffffffffffffffff1667ffffffffffffffff1667ffffffffffffffff1681526020016000820160089054906101000a900467ffffffffffffffff1667ffffffffffffffff1667ffffffffffffffff16815250508152505081526020019060010190612835565b50505050612cb6565b61297d576040517f08c379a000000000000000000000000000000000000000000000000000000000815260040161297490615740565b60405180910390fd5b6129aa3330848673ffffffffffffffffffffffffffffffffffffffff16612e64909392919063ffffffff16565b612a10826007600087815260200190815260200160002060008673ffffffffffffffffffffffffffffffffffffffff1673ffffffffffffffffffffffffffffffffffffffff16815260200190815260200160002060000154612b5e90919063ffffffff16565b6007600086815260200190815260200160002060008573ffffffffffffffffffffffffffffffffffffffff1673ffffffffffffffffffffffffffffffffffffffff1681526020019081526020016000206000018190555050505050565b612a75612b74565b600073ffffffffffffffffffffffffffffffffffffffff168173ffffffffffffffffffffffffffffffffffffffff161415612ae5576040517f08c379a0000000000000000000000000000000000000000000000000000000008152600401612adc906157d2565b60405180910390fd5b612aee81612bf2565b50565b60008183612aff91906157f2565b905092915050565b60008183612b15919061587b565b905092915050565b60008183612b2b9190614d87565b905092915050565b60008082806020019051810190612b4a91906158ac565b909192509091508092508193505050915091565b60008183612b6c9190614d31565b905092915050565b612b7c612eed565b73ffffffffffffffffffffffffffffffffffffffff16612b9a611aab565b73ffffffffffffffffffffffffffffffffffffffff1614612bf0576040517f08c379a0000000000000000000000000000000000000000000000000000000008152600401612be79061595f565b60405180910390fd5b565b60008060009054906101000a900473ffffffffffffffffffffffffffffffffffffffff169050816000806101000a81548173ffffffffffffffffffffffffffffffffffffffff021916908373ffffffffffffffffffffffffffffffffffffffff1602179055508173ffffffffffffffffffffffffffffffffffffffff168173ffffffffffffffffffffffffffffffffffffffff167f8be0079c531659141344cd1fd0a4f28419497f9722a3daafe3b4186f6b6457e060405160405180910390a35050565b600080600090505b8251811015612d36578373ffffffffffffffffffffffffffffffffffffffff16838281518110612cf157612cf0614490565b5b60200260200101516000015173ffffffffffffffffffffffffffffffffffffffff161415612d23576001915050612d3c565b8080612d2e90614622565b915050612cbe565b50600090505b92915050565b612dc38363a9059cbb60e01b8484604051602401612d6192919061453a565b604051602081830303815290604052907bffffffffffffffffffffffffffffffffffffffffffffffffffffffff19166020820180517bffffffffffffffffffffffffffffffffffffffffffffffffffffffff8381831617835250505050612ef5565b505050565b6000612dd78360000183612fbc565b905092915050565b6000612dee8360000183612fdf565b905092915050565b6000816000015167ffffffffffffffff16118015612e2257506000816020015167ffffffffffffffff16115b612e61576040517f08c379a0000000000000000000000000000000000000000000000000000000008152600401612e58906159cb565b60405180910390fd5b50565b612ee7846323b872dd60e01b858585604051602401612e85939291906145bc565b604051602081830303815290604052907bffffffffffffffffffffffffffffffffffffffffffffffffffffffff19166020820180517bffffffffffffffffffffffffffffffffffffffffffffffffffffffff8381831617835250505050612ef5565b50505050565b600033905090565b6000612f57826040518060400160405280602081526020017f5361666545524332303a206c6f772d6c6576656c2063616c6c206661696c65648152508573ffffffffffffffffffffffffffffffffffffffff1661304f9092919063ffffffff16565b9050600081511115612fb75780806020019051810190612f77919061458f565b612fb6576040517f08c379a0000000000000000000000000000000000000000000000000000000008152600401612fad90615a5d565b60405180910390fd5b5b505050565b600080836001016000848152602001908152602001600020541415905092915050565b6000612feb8383612fbc565b613044578260000182908060018154018082558091505060019003906000526020600020016000909190919091505582600001805490508360010160008481526020019081526020016000208190555060019050613049565b600090505b92915050565b606061305e8484600085613067565b90509392505050565b6060824710156130ac576040517f08c379a00000000000000000000000000000000000000000000000000000000081526004016130a390615aef565b60405180910390fd5b6130b58561317b565b6130f4576040517f08c379a00000000000000000000000000000000000000000000000000000000081526004016130eb90615b5b565b60405180910390fd5b6000808673ffffffffffffffffffffffffffffffffffffffff16858760405161311d91906148c3565b60006040518083038185875af1925050503d806000811461315a576040519150601f19603f3d011682016040523d82523d6000602084013e61315f565b606091505b509150915061316f82828661319e565b92505050949350505050565b6000808273ffffffffffffffffffffffffffffffffffffffff163b119050919050565b606083156131ae578290506131fe565b6000835111156131c15782518084602001fd5b816040517f08c379a00000000000000000000000000000000000000000000000000000000081526004016131f59190615bb4565b60405180910390fd5b9392505050565b8280546132119061469a565b90600052602060002090601f016020900481019282613233576000855561327a565b82601f1061324c57805160ff191683800117855561327a565b8280016001018555821561327a579182015b8281111561327957825182559160200191906001019061325e565b5b50905061328791906133b2565b5090565b6040518060a0016040528060008019168152602001606081526020016060815260200160008019168152602001600080191681525090565b6040518060e00160405280600073ffffffffffffffffffffffffffffffffffffffff168152602001600073ffffffffffffffffffffffffffffffffffffffff16815260200160008152602001600081526020016000815260200160608152602001606081525090565b8280546133389061469a565b90600052602060002090601f01602090048101928261335a57600085556133a1565b82601f1061337357803560ff19168380011785556133a1565b828001600101855582156133a1579182015b828111156133a0578235825591602001919060010190613385565b5b5090506133ae91906133b2565b5090565b5b808211156133cb5760008160009055506001016133b3565b5090565b6000604051905090565b600080fd5b600080fd5b6000819050919050565b6133f6816133e3565b811461340157600080fd5b50565b600081359050613413816133ed565b92915050565b600080fd5b600080fd5b600080fd5b60008083601f84011261343e5761343d613419565b5b8235905067ffffffffffffffff81111561345b5761345a61341e565b5b60208301915083600182028301111561347757613476613423565b5b9250929050565b6000819050919050565b6134918161347e565b811461349c57600080fd5b50565b6000813590506134ae81613488565b92915050565b600073ffffffffffffffffffffffffffffffffffffffff82169050919050565b60006134df826134b4565b9050919050565b6134ef816134d4565b81146134fa57600080fd5b50565b60008135905061350c816134e6565b92915050565b60008060008060006080868803121561352e5761352d6133d9565b5b600061353c88828901613404565b955050602086013567ffffffffffffffff81111561355d5761355c6133de565b5b61356988828901613428565b9450945050604061357c8882890161349f565b925050606061358d888289016134fd565b9150509295509295909350565b6000602082840312156135b0576135af6133d9565b5b60006135be84828501613404565b91505092915050565b6135d0816133e3565b82525050565b600081519050919050565b600082825260208201905092915050565b60005b838110156136105780820151818401526020810190506135f5565b8381111561361f576000848401525b50505050565b6000601f19601f8301169050919050565b6000613641826135d6565b61364b81856135e1565b935061365b8185602086016135f2565b61366481613625565b840191505092915050565b600081519050919050565b600082825260208201905092915050565b6000819050602082019050919050565b6136a4816134d4565b82525050565b600067ffffffffffffffff82169050919050565b6136c7816136aa565b82525050565b6040820160008201516136e360008501826136be565b5060208201516136f660208501826136be565b50505050565b606082016000820151613712600085018261369b565b50602082015161372560208501826136cd565b50505050565b600061373783836136fc565b60608301905092915050565b6000602082019050919050565b600061375b8261366f565b613765818561367a565b93506137708361368b565b8060005b838110156137a1578151613788888261372b565b975061379383613743565b925050600181019050613774565b5085935050505092915050565b600060a0830160008301516137c660008601826135c7565b50602083015184820360208601526137de8282613636565b915050604083015184820360408601526137f88282613750565b915050606083015161380d60608601826135c7565b50608083015161382060808601826135c7565b508091505092915050565b6000602082019050818103600083015261384581846137ae565b905092915050565b7f4e487b7100000000000000000000000000000000000000000000000000000000600052604160045260246000fd5b61388582613625565b810181811067ffffffffffffffff821117156138a4576138a361384d565b5b80604052505050565b60006138b76133cf565b90506138c3828261387c565b919050565b600067ffffffffffffffff8211156138e3576138e261384d565b5b602082029050602081019050919050565b6000613907613902846138c8565b6138ad565b9050808382526020820190506020840283018581111561392a57613929613423565b5b835b81811015613953578061393f88826134fd565b84526020840193505060208101905061392c565b5050509392505050565b600082601f83011261397257613971613419565b5b81356139828482602086016138f4565b91505092915050565b60008083601f8401126139a1576139a0613419565b5b8235905067ffffffffffffffff8111156139be576139bd61341e565b5b6020830191508360208202830111156139da576139d9613423565b5b9250929050565b6000806000604084860312156139fa576139f96133d9565b5b600084013567ffffffffffffffff811115613a1857613a176133de565b5b613a248682870161395d565b935050602084013567ffffffffffffffff811115613a4557613a446133de565b5b613a518682870161398b565b92509250509250925092565b600081519050919050565b600082825260208201905092915050565b6000819050602082019050919050565b613a928161347e565b82525050565b6000613aa48383613a89565b60208301905092915050565b6000602082019050919050565b6000613ac882613a5d565b613ad28185613a68565b9350613add83613a79565b8060005b83811015613b0e578151613af58882613a98565b9750613b0083613ab0565b925050600181019050613ae1565b5085935050505092915050565b60006020820190508181036000830152613b358184613abd565b905092915050565b600080fd5b600067ffffffffffffffff821115613b5d57613b5c61384d565b5b613b6682613625565b9050602081019050919050565b82818337600083830152505050565b6000613b95613b9084613b42565b6138ad565b905082815260208101848484011115613bb157613bb0613b3d565b5b613bbc848285613b73565b509392505050565b600082601f830112613bd957613bd8613419565b5b8135613be9848260208601613b82565b91505092915050565b60008060408385031215613c0957613c086133d9565b5b6000613c17858286016134fd565b925050602083013567ffffffffffffffff811115613c3857613c376133de565b5b613c4485828601613bc4565b9150509250929050565b613c57816133e3565b82525050565b6000602082019050613c726000830184613c4e565b92915050565b60008115159050919050565b613c8d81613c78565b82525050565b6000602082019050613ca86000830184613c84565b92915050565b60008083601f840112613cc457613cc3613419565b5b8235905067ffffffffffffffff811115613ce157613ce061341e565b5b602083019150836001820283011115613cfd57613cfc613423565b5b9250929050565b60008083601f840112613d1a57613d19613419565b5b8235905067ffffffffffffffff811115613d3757613d3661341e565b5b602083019150836020820283011115613d5357613d52613423565b5b9250929050565b60008060008060008060008060a0898b031215613d7a57613d796133d9565b5b6000613d888b828c01613404565b985050602089013567ffffffffffffffff811115613da957613da86133de565b5b613db58b828c01613cae565b9750975050604089013567ffffffffffffffff811115613dd857613dd76133de565b5b613de48b828c01613d04565b9550955050606089013567ffffffffffffffff811115613e0757613e066133de565b5b613e138b828c01613d04565b93509350506080613e268b828c01613404565b9150509295985092959890939650565b600080600060408486031215613e4f57613e4e6133d9565b5b6000613e5d868287016134fd565b935050602084013567ffffffffffffffff811115613e7e57613e7d6133de565b5b613e8a86828701613428565b92509250509250925092565b600080600080600060808688031215613eb257613eb16133d9565b5b6000613ec0888289016134fd565b955050602086013567ffffffffffffffff811115613ee157613ee06133de565b5b613eed88828901613428565b94509450506040613f008882890161349f565b9250506060613f118882890161349f565b9150509295509295909350565b600081519050919050565b600082825260208201905092915050565b6000819050602082019050919050565b600060e083016000830151613f62600086018261369b565b506020830151613f75602086018261369b565b506040830151613f886040860182613a89565b506060830151613f9b6060860182613a89565b506080830151613fae6080860182613a89565b5060a083015184820360a0860152613fc68282613636565b91505060c083015184820360c0860152613fe08282613636565b9150508091505092915050565b6000613ff98383613f4a565b905092915050565b6000602082019050919050565b600061401982613f1e565b6140238185613f29565b93508360208202850161403585613f3a565b8060005b8581101561407157848403895281516140528582613fed565b945061405d83614001565b925060208a01995050600181019050614039565b50829750879550505050505092915050565b6000602082019050818103600083015261409d818461400e565b905092915050565b6140ae816134d4565b82525050565b60006020820190506140c960008301846140a5565b92915050565b6000806000606084860312156140e8576140e76133d9565b5b60006140f686828701613404565b9350506020614107868287016134fd565b92505060406141188682870161349f565b9150509250925092565b60008083601f84011261413857614137613419565b5b8235905067ffffffffffffffff8111156141555761415461341e565b5b60208301915083606082028301111561417157614170613423565b5b9250929050565b600080600080600060608688031215614194576141936133d9565b5b600086013567ffffffffffffffff8111156141b2576141b16133de565b5b6141be88828901614122565b9550955050602086013567ffffffffffffffff8111156141e1576141e06133de565b5b6141ed88828901613428565b9350935050604061420088828901613404565b9150509295509295909350565b600080600060608486031215614226576142256133d9565b5b600084013567ffffffffffffffff811115614244576142436133de565b5b61425086828701613bc4565b93505060206142618682870161349f565b9250506040614272868287016134fd565b9150509250925092565b600060208284031215614292576142916133d9565b5b60006142a0848285016134fd565b91505092915050565b600082825260208201905092915050565b7f6f6e6c7920726563656976657220686173207065726d697373696f6e20746f2060008201527f7377617020746f6b656e00000000000000000000000000000000000000000000602082015250565b6000614316602a836142a9565b9150614321826142ba565b604082019050919050565b6000602082019050818103600083015261434581614309565b9050919050565b7f746f6b656e20737761702070616972206e6f7420666f756e6400000000000000600082015250565b60006143826019836142a9565b915061438d8261434c565b602082019050919050565b600060208201905081810360008301526143b181614375565b9050919050565b7f696e76616c696420616d6f756e74000000000000000000000000000000000000600082015250565b60006143ee600e836142a9565b91506143f9826143b8565b602082019050919050565b6000602082019050818103600083015261441d816143e1565b9050919050565b7f616c726561647920636c61696d65640000000000000000000000000000000000600082015250565b600061445a600f836142a9565b915061446582614424565b602082019050919050565b600060208201905081810360008301526144898161444d565b9050919050565b7f4e487b7100000000000000000000000000000000000000000000000000000000600052603260045260246000fd5b7f6465706f736974206e6f7420656e6f7567687400000000000000000000000000600082015250565b60006144f56013836142a9565b9150614500826144bf565b602082019050919050565b60006020820190508181036000830152614524816144e8565b9050919050565b6145348161347e565b82525050565b600060408201905061454f60008301856140a5565b61455c602083018461452b565b9392505050565b61456c81613c78565b811461457757600080fd5b50565b60008151905061458981614563565b92915050565b6000602082840312156145a5576145a46133d9565b5b60006145b38482850161457a565b91505092915050565b60006060820190506145d160008301866140a5565b6145de60208301856140a5565b6145eb604083018461452b565b949350505050565b7f4e487b7100000000000000000000000000000000000000000000000000000000600052601160045260246000fd5b600061462d8261347e565b91507fffffffffffffffffffffffffffffffffffffffffffffffffffffffffffffffff8214156146605761465f6145f3565b5b600182019050919050565b7f4e487b7100000000000000000000000000000000000000000000000000000000600052602260045260246000fd5b600060028204905060018216806146b257607f821691505b602082108114156146c6576146c561466b565b5b50919050565b7f496e76616c696420746f6b656e732f66726f6d436861696e49647320696e707560008201527f7400000000000000000000000000000000000000000000000000000000000000602082015250565b60006147286021836142a9565b9150614733826146cc565b604082019050919050565b600060208201905081810360008301526147578161471b565b9050919050565b600080fd5b600080fd5b600080fd5b6000808335600160200384360303811261478a5761478961475e565b5b80840192508235915067ffffffffffffffff8211156147ac576147ab614763565b5b6020830192506001820236038313156147c8576147c7614768565b5b509250929050565b60008160601b9050919050565b60006147e8826147d0565b9050919050565b60006147fa826147dd565b9050919050565b61481261480d826134d4565b6147ef565b82525050565b600081905092915050565b600061482e826135d6565b6148388185614818565b93506148488185602086016135f2565b80840191505092915050565b60006148608285614801565b6014820191506148708284614823565b91508190509392505050565b600081519050919050565b600081905092915050565b600061489d8261487c565b6148a78185614887565b93506148b78185602086016135f2565b80840191505092915050565b60006148cf8284614892565b915081905092915050565b6000815190506148e9816133ed565b92915050565b600060208284031215614905576149046133d9565b5b6000614913848285016148da565b91505092915050565b60006040820190506149316000830185613c4e565b61493e60208301846140a5565b9392505050565b7f4e6f207065726d697373696f6e20746f207472616e736d697400000000000000600082015250565b600061497b6019836142a9565b915061498682614945565b602082019050919050565b600060208201905081810360008301526149aa8161496e565b9050919050565b60006149bd8385614887565b93506149ca838584613b73565b82840190509392505050565b60006149e38284866149b1565b91508190509392505050565b600060ff82169050919050565b6000614a07826149ef565b9150614a12836149ef565b92508260ff03821115614a2857614a276145f3565b5b828201905092915050565b614a3c816149ef565b82525050565b6000608082019050614a576000830187613c4e565b614a646020830186614a33565b614a716040830185613c4e565b614a7e6060830184613c4e565b95945050505050565b7f4e6f207065726d697373696f6e20746f207369676e0000000000000000000000600082015250565b6000614abd6015836142a9565b9150614ac882614a87565b602082019050919050565b60006020820190508181036000830152614aec81614ab0565b9050919050565b7f616c7265616479207265636f7264656400000000000000000000000000000000600082015250565b6000614b296010836142a9565b9150614b3482614af3565b602082019050919050565b60006020820190508181036000830152614b5881614b1c565b9050919050565b600081519050919050565b600082825260208201905092915050565b6000819050602082019050919050565b6000614b9783836135c7565b60208301905092915050565b6000602082019050919050565b6000614bbb82614b5f565b614bc58185614b6a565b9350614bd083614b7b565b8060005b83811015614c01578151614be88882614b8b565b9750614bf383614ba3565b925050600181019050614bd4565b5085935050505092915050565b6000604082019050614c236000830185613c4e565b8181036020830152614c358184614bb0565b90509392505050565b600081519050614c4d81613488565b92915050565b600060208284031215614c6957614c686133d9565b5b6000614c7784828501614c3e565b91505092915050565b6000608082019050614c956000830187613c4e565b614ca260208301866140a5565b614caf604083018561452b565b614cbc6060830184613c4e565b95945050505050565b7f496e76616c696420696e70757400000000000000000000000000000000000000600082015250565b6000614cfb600d836142a9565b9150614d0682614cc5565b602082019050919050565b60006020820190508181036000830152614d2a81614cee565b9050919050565b6000614d3c8261347e565b9150614d478361347e565b9250827fffffffffffffffffffffffffffffffffffffffffffffffffffffffffffffffff03821115614d7c57614d7b6145f3565b5b828201905092915050565b6000614d928261347e565b9150614d9d8361347e565b925082821015614db057614daf6145f3565b5b828203905092915050565b7f4e6f207065726d697373696f6e00000000000000000000000000000000000000600082015250565b6000614df1600d836142a9565b9150614dfc82614dbb565b602082019050919050565b60006020820190508181036000830152614e2081614de4565b9050919050565b6000604082019050614e3c6000830185613c4e565b614e49602083018461452b565b9392505050565b600067ffffffffffffffff821115614e6b57614e6a61384d565b5b602082029050602081019050919050565b6000614e8f614e8a84614e50565b6138ad565b90508083825260208201905060208402830185811115614eb257614eb1613423565b5b835b81811015614edb5780614ec788826148da565b845260208401935050602081019050614eb4565b5050509392505050565b600082601f830112614efa57614ef9613419565b5b8151614f0a848260208601614e7c565b91505092915050565b600067ffffffffffffffff821115614f2e57614f2d61384d565b5b602082029050602081019050919050565b6000614f52614f4d84614f13565b6138ad565b90508083825260208201905060208402830185811115614f7557614f74613423565b5b835b81811015614f9e5780614f8a888261457a565b845260208401935050602081019050614f77565b5050509392505050565b600082601f830112614fbd57614fbc613419565b5b8151614fcd848260208601614f3f565b91505092915050565b60008060008060808587031215614ff057614fef6133d9565b5b6000614ffe87828801614c3e565b945050602061500f87828801614c3e565b935050604085015167ffffffffffffffff8111156150305761502f6133de565b5b61503c87828801614ee5565b925050606085015167ffffffffffffffff81111561505d5761505c6133de565b5b61506987828801614fa8565b91505092959194509250565b600081519050919050565b600082825260208201905092915050565b6000819050602082019050919050565b6150aa81613c78565b82525050565b60006150bc83836150a1565b60208301905092915050565b6000602082019050919050565b60006150e082615075565b6150ea8185615080565b93506150f583615091565b8060005b8381101561512657815161510d88826150b0565b9750615118836150c8565b9250506001810190506150f9565b5085935050505092915050565b600060a0820190506151486000830188613c4e565b615155602083018761452b565b6151626040830186613c4e565b81810360608301526151748185614bb0565b9050818103608083015261518881846150d5565b90509695505050505050565b7f6661696c656420746f207377617020746f6b656e000000000000000000000000600082015250565b60006151ca6014836142a9565b91506151d582615194565b602082019050919050565b600060208201905081810360008301526151f9816151bd565b9050919050565b7f54617267657420746f6b656e20616c7265616479206578697374000000000000600082015250565b6000615236601a836142a9565b915061524182615200565b602082019050919050565b6000602082019050818103600083015261526581615229565b9050919050565b6000819050919050565b6000819050919050565b600061529b6152966152918461526c565b615276565b61347e565b9050919050565b6152ab81615280565b82525050565b60006040820190506152c66000830185613c4e565b6152d360208301846152a2565b9392505050565b600080fd5b6152e8816136aa565b81146152f357600080fd5b50565b600081359050615305816152df565b92915050565b600060408284031215615321576153206152da565b5b61532b60406138ad565b9050600061533b848285016152f6565b600083015250602061534f848285016152f6565b60208301525092915050565b600060408284031215615371576153706133d9565b5b600061537f8482850161530b565b91505092915050565b60008135615395816134e6565b80915050919050565b60008160001b9050919050565b600073ffffffffffffffffffffffffffffffffffffffff6153cb8461539e565b9350801983169250808416831791505092915050565b60006153fc6153f76153f2846134b4565b615276565b6134b4565b9050919050565b600061540e826153e1565b9050919050565b600061542082615403565b9050919050565b6000819050919050565b61543a82615415565b61544d61544682615427565b83546153ab565b8255505050565b60008135615461816152df565b80915050919050565b600067ffffffffffffffff61547e8461539e565b9350801983169250808416831791505092915050565b60006154af6154aa6154a5846136aa565b615276565b6136aa565b9050919050565b6000819050919050565b6154c982615494565b6154dc6154d5826154b6565b835461546a565b8255505050565b60008160401b9050919050565b60006fffffffffffffffff000000000000000061550c846154e3565b9350801983169250808416831791505092915050565b61552b82615494565b61553e615537826154b6565b83546154f0565b8255505050565b60008101600083018061555781615454565b905061556381846154c0565b50505060008101602083018061557881615454565b90506155848184615522565b5050505050565b6155958282615545565b5050565b6000810160008301806155ab81615388565b90506155b78184615431565b5050506001810160208301806155cd818461558b565b5050505050565b6155de8282615599565b5050565b60006155ee83856142a9565b93506155fb838584613b73565b61560483613625565b840190509392505050565b60006060820190506156246000830187613c4e565b61563160208301866140a5565b81810360408301526156448184866155e2565b905095945050505050565b600061565b8284614823565b915081905092915050565b6000819050919050565b61568161567c8261347e565b615666565b82525050565b60006156938284615670565b60208201915081905092915050565b60006156ae8284614801565b60148201915081905092915050565b60006060820190506156d26000830186613c4e565b6156df6020830185613c4e565b6156ec6040830184613c4e565b949350505050565b7f496e76616c696420746f6b656e00000000000000000000000000000000000000600082015250565b600061572a600d836142a9565b9150615735826156f4565b602082019050919050565b600060208201905081810360008301526157598161571d565b9050919050565b7f4f776e61626c653a206e6577206f776e657220697320746865207a65726f206160008201527f6464726573730000000000000000000000000000000000000000000000000000602082015250565b60006157bc6026836142a9565b91506157c782615760565b604082019050919050565b600060208201905081810360008301526157eb816157af565b9050919050565b60006157fd8261347e565b91506158088361347e565b9250817fffffffffffffffffffffffffffffffffffffffffffffffffffffffffffffffff0483118215151615615841576158406145f3565b5b828202905092915050565b7f4e487b7100000000000000000000000000000000000000000000000000000000600052601260045260246000fd5b60006158868261347e565b91506158918361347e565b9250826158a1576158a061584c565b5b828204905092915050565b600080600080608085870312156158c6576158c56133d9565b5b60006158d487828801614c3e565b94505060206158e587828801614c3e565b93505060406158f687828801614c3e565b9250506060615907878288016148da565b91505092959194509250565b7f4f776e61626c653a2063616c6c6572206973206e6f7420746865206f776e6572600082015250565b60006159496020836142a9565b915061595482615913565b602082019050919050565b600060208201905081810360008301526159788161593c565b9050919050565b7f696e76616c6964207377617020726174696f0000000000000000000000000000600082015250565b60006159b56012836142a9565b91506159c08261597f565b602082019050919050565b600060208201905081810360008301526159e4816159a8565b9050919050565b7f5361666545524332303a204552433230206f7065726174696f6e20646964206e60008201527f6f74207375636365656400000000000000000000000000000000000000000000602082015250565b6000615a47602a836142a9565b9150615a52826159eb565b604082019050919050565b60006020820190508181036000830152615a7681615a3a565b9050919050565b7f416464726573733a20696e73756666696369656e742062616c616e636520666f60008201527f722063616c6c0000000000000000000000000000000000000000000000000000602082015250565b6000615ad96026836142a9565b9150615ae482615a7d565b604082019050919050565b60006020820190508181036000830152615b0881615acc565b9050919050565b7f416464726573733a2063616c6c20746f206e6f6e2d636f6e7472616374000000600082015250565b6000615b45601d836142a9565b9150615b5082615b0f565b602082019050919050565b60006020820190508181036000830152615b7481615b38565b9050919050565b6000615b86826135d6565b615b9081856142a9565b9350615ba08185602086016135f2565b615ba981613625565b840191505092915050565b60006020820190508181036000830152615bce8184615b7b565b90509291505056fea264697066735822122027994878bc0796324bd5651e387b07610e125535c1f39fcdb2ffab52eba39b4964736f6c63430008090033",
  "linkReferences": {},
  "deployedLinkReferences": {}
}