{
  "_format": "hh-sol-artifact-1",
  "contractName": "BridgeOut",
  "sourceName": "contracts/BridgeOut.sol",
  "abi": [
    {
      "inputs": [
        {
          "internalType": "address",
          "name": "_merkleTree",
          "type": "address"
        },
        {
          "internalType": "address",
          "name": "_regiment",
          "type": "address"
        }
      ],
      "stateMutability": "nonpayable",
      "type": "constructor"
    },
    {
      "anonymous": false,
      "inputs": [
        {
          "indexed": false,
          "internalType": "bytes32",
          "name": "swapId",
          "type": "bytes32"
        },
        {
          "indexed": false,
          "internalType": "address",
          "name": "transmiter",
          "type": "address"
        },
        {
          "indexed": false,
          "internalType": "uint256",
          "name": "receiptIndex",
          "type": "uint256"
        },
        {
          "indexed": false,
          "internalType": "bytes32",
          "name": "receiptHash",
          "type": "bytes32"
        }
      ],
      "name": "NewTransmission",
      "type": "event"
    },
    {
      "anonymous": false,
      "inputs": [
        {
          "indexed": true,
          "internalType": "address",
          "name": "previousOwner",
          "type": "address"
        },
        {
          "indexed": true,
          "internalType": "address",
          "name": "newOwner",
          "type": "address"
        }
      ],
      "name": "OwnershipTransferred",
      "type": "event"
    },
    {
      "anonymous": false,
      "inputs": [
        {
          "indexed": false,
          "internalType": "bytes32",
          "name": "swapId",
          "type": "bytes32"
        },
        {
          "indexed": false,
          "internalType": "address",
          "name": "token",
          "type": "address"
        },
        {
          "indexed": false,
          "internalType": "string",
          "name": "chainId",
          "type": "string"
        }
      ],
      "name": "SwapPairAdded",
      "type": "event"
    },
    {
      "anonymous": false,
      "inputs": [
        {
          "indexed": false,
          "internalType": "address",
          "name": "receiveAddress",
          "type": "address"
        },
        {
          "indexed": false,
          "internalType": "address",
          "name": "token",
          "type": "address"
        },
        {
          "indexed": false,
          "internalType": "uint256",
          "name": "amount",
          "type": "uint256"
        }
      ],
      "name": "TokenSwapEvent",
      "type": "event"
    },
    {
      "inputs": [
        {
          "internalType": "address",
          "name": "token",
          "type": "address"
        },
        {
          "internalType": "string",
          "name": "chainId",
          "type": "string"
        }
      ],
      "name": "_generateTokenKey",
      "outputs": [
        {
          "internalType": "bytes32",
          "name": "",
          "type": "bytes32"
        }
      ],
      "stateMutability": "pure",
      "type": "function"
    },
    {
      "inputs": [
        {
          "internalType": "string",
          "name": "_receiptId",
          "type": "string"
        },
        {
          "internalType": "uint256",
          "name": "_amount",
          "type": "uint256"
        },
        {
          "internalType": "address",
          "name": "_receiverAddress",
          "type": "address"
        }
      ],
      "name": "computeLeafHash",
      "outputs": [
        {
          "internalType": "bytes32",
          "name": "_leafHash",
          "type": "bytes32"
        }
      ],
      "stateMutability": "pure",
      "type": "function"
    },
    {
      "inputs": [
        {
          "components": [
            {
              "internalType": "address",
              "name": "token",
              "type": "address"
            },
            {
              "components": [
                {
                  "internalType": "uint64",
                  "name": "originShare",
                  "type": "uint64"
                },
                {
                  "internalType": "uint64",
                  "name": "targetShare",
                  "type": "uint64"
                }
              ],
              "internalType": "struct BridgeOut.SwapRatio",
              "name": "swapRatio",
              "type": "tuple"
            }
          ],
          "internalType": "struct BridgeOut.SwapTargetToken[]",
          "name": "targetTokens",
          "type": "tuple[]"
        },
        {
          "internalType": "string",
          "name": "fromChainId",
          "type": "string"
        },
        {
          "internalType": "bytes32",
          "name": "regimentId",
          "type": "bytes32"
        }
      ],
      "name": "createSwap",
      "outputs": [],
      "stateMutability": "nonpayable",
      "type": "function"
    },
    {
      "inputs": [
        {
          "internalType": "bytes32",
          "name": "swapHashId",
          "type": "bytes32"
        },
        {
          "internalType": "address",
          "name": "tokens",
          "type": "address"
        },
        {
          "internalType": "uint256",
          "name": "amounts",
          "type": "uint256"
        }
      ],
      "name": "deposit",
      "outputs": [],
      "stateMutability": "nonpayable",
      "type": "function"
    },
    {
      "inputs": [
        {
          "internalType": "address[]",
          "name": "tokens",
          "type": "address[]"
        },
        {
          "internalType": "string[]",
          "name": "targetChainIds",
          "type": "string[]"
        }
      ],
      "name": "getReceiveReceiptIndex",
      "outputs": [
        {
          "internalType": "uint256[]",
          "name": "",
          "type": "uint256[]"
        }
      ],
      "stateMutability": "view",
      "type": "function"
    },
    {
      "inputs": [
        {
          "internalType": "address",
          "name": "token",
          "type": "address"
        },
        {
          "internalType": "string",
          "name": "targetChainId",
          "type": "string"
        },
        {
          "internalType": "uint256",
          "name": "fromIndex",
          "type": "uint256"
        },
        {
          "internalType": "uint256",
          "name": "endIndex",
          "type": "uint256"
        }
      ],
      "name": "getReceivedReceiptInfos",
      "outputs": [
        {
          "components": [
            {
              "internalType": "address",
              "name": "asset",
              "type": "address"
            },
            {
              "internalType": "address",
              "name": "targetAddress",
              "type": "address"
            },
            {
              "internalType": "uint256",
              "name": "amount",
              "type": "uint256"
            },
            {
              "internalType": "uint256",
              "name": "blockHeight",
              "type": "uint256"
            },
            {
              "internalType": "uint256",
              "name": "blockTime",
              "type": "uint256"
            },
            {
              "internalType": "string",
              "name": "targetChainId",
              "type": "string"
            },
            {
              "internalType": "string",
              "name": "receiptId",
              "type": "string"
            }
          ],
          "internalType": "struct BridgeOut.ReceivedReceipt[]",
          "name": "_receipts",
          "type": "tuple[]"
        }
      ],
      "stateMutability": "view",
      "type": "function"
    },
    {
      "inputs": [
        {
          "internalType": "address",
          "name": "token",
          "type": "address"
        },
        {
          "internalType": "string",
          "name": "targetChainId",
          "type": "string"
        }
      ],
      "name": "getSwapId",
      "outputs": [
        {
          "internalType": "bytes32",
          "name": "",
          "type": "bytes32"
        }
      ],
      "stateMutability": "view",
      "type": "function"
    },
    {
      "inputs": [
        {
          "internalType": "bytes32",
          "name": "swapId",
          "type": "bytes32"
        }
      ],
      "name": "getSwapInfo",
      "outputs": [
        {
          "components": [
            {
              "internalType": "bytes32",
              "name": "swapId",
              "type": "bytes32"
            },
            {
              "internalType": "string",
              "name": "fromChainId",
              "type": "string"
            },
            {
              "components": [
                {
                  "internalType": "address",
                  "name": "token",
                  "type": "address"
                },
                {
                  "components": [
                    {
                      "internalType": "uint64",
                      "name": "originShare",
                      "type": "uint64"
                    },
                    {
                      "internalType": "uint64",
                      "name": "targetShare",
                      "type": "uint64"
                    }
                  ],
                  "internalType": "struct BridgeOut.SwapRatio",
                  "name": "swapRatio",
                  "type": "tuple"
                }
              ],
              "internalType": "struct BridgeOut.SwapTargetToken[]",
              "name": "swapTargetTokenList",
              "type": "tuple[]"
            },
            {
              "internalType": "bytes32",
              "name": "regimentId",
              "type": "bytes32"
            },
            {
              "internalType": "bytes32",
              "name": "spaceId",
              "type": "bytes32"
            }
          ],
          "internalType": "struct BridgeOut.SwapInfo",
          "name": "swapInfo",
          "type": "tuple"
        }
      ],
      "stateMutability": "view",
      "type": "function"
    },
    {
      "inputs": [
        {
          "internalType": "bytes32",
          "name": "receiptHash",
          "type": "bytes32"
        }
      ],
      "name": "isReceiptRecorded",
      "outputs": [
        {
          "internalType": "bool",
          "name": "",
          "type": "bool"
        }
      ],
      "stateMutability": "view",
      "type": "function"
    },
    {
      "inputs": [
        {
          "internalType": "bytes32",
          "name": "spaceId",
          "type": "bytes32"
        },
        {
          "internalType": "string",
          "name": "receiptId",
          "type": "string"
        },
        {
          "internalType": "uint256",
          "name": "amount",
          "type": "uint256"
        },
        {
          "internalType": "address",
          "name": "receiverAddress",
          "type": "address"
        }
      ],
      "name": "merkleTreeVerify",
      "outputs": [
        {
          "internalType": "bytes32",
          "name": "",
          "type": "bytes32"
        }
      ],
      "stateMutability": "view",
      "type": "function"
    },
    {
      "inputs": [],
      "name": "owner",
      "outputs": [
        {
          "internalType": "address",
          "name": "",
          "type": "address"
        }
      ],
      "stateMutability": "view",
      "type": "function"
    },
    {
      "inputs": [],
      "name": "renounceOwnership",
      "outputs": [],
      "stateMutability": "nonpayable",
      "type": "function"
    },
    {
      "inputs": [
        {
          "internalType": "bytes32",
          "name": "swapId",
          "type": "bytes32"
        },
        {
          "internalType": "string",
          "name": "receiptId",
          "type": "string"
        },
        {
          "internalType": "uint256",
          "name": "amount",
          "type": "uint256"
        },
        {
          "internalType": "address",
          "name": "receiverAddress",
          "type": "address"
        }
      ],
      "name": "swapToken",
      "outputs": [],
      "stateMutability": "nonpayable",
      "type": "function"
    },
    {
      "inputs": [
        {
          "internalType": "address",
          "name": "newOwner",
          "type": "address"
        }
      ],
      "name": "transferOwnership",
      "outputs": [],
      "stateMutability": "nonpayable",
      "type": "function"
    },
    {
      "inputs": [
        {
          "internalType": "bytes32",
          "name": "swapHashId",
          "type": "bytes32"
        },
        {
          "internalType": "bytes",
          "name": "_report",
          "type": "bytes"
        },
        {
          "internalType": "bytes32[]",
          "name": "_rs",
          "type": "bytes32[]"
        },
        {
          "internalType": "bytes32[]",
          "name": "_ss",
          "type": "bytes32[]"
        },
        {
          "internalType": "bytes32",
          "name": "_rawVs",
          "type": "bytes32"
        }
      ],
      "name": "transmit",
      "outputs": [],
      "stateMutability": "nonpayable",
      "type": "function"
    },
    {
      "inputs": [
        {
          "internalType": "bytes32",
          "name": "swapHashId",
          "type": "bytes32"
        },
        {
          "internalType": "address",
          "name": "token",
          "type": "address"
        },
        {
          "internalType": "uint256",
          "name": "amount",
          "type": "uint256"
        }
      ],
      "name": "withdraw",
      "outputs": [],
      "stateMutability": "nonpayable",
      "type": "function"
    }
  ],
  "bytecode": "0x60806040523480156200001157600080fd5b506040516200622438038062006224833981810160405281019062000037919062000217565b620000576200004b620000e160201b60201c565b620000e960201b60201c565b81600160006101000a81548173ffffffffffffffffffffffffffffffffffffffff021916908373ffffffffffffffffffffffffffffffffffffffff16021790555080600260006101000a81548173ffffffffffffffffffffffffffffffffffffffff021916908373ffffffffffffffffffffffffffffffffffffffff16021790555050506200025e565b600033905090565b60008060009054906101000a900473ffffffffffffffffffffffffffffffffffffffff169050816000806101000a81548173ffffffffffffffffffffffffffffffffffffffff021916908373ffffffffffffffffffffffffffffffffffffffff1602179055508173ffffffffffffffffffffffffffffffffffffffff168173ffffffffffffffffffffffffffffffffffffffff167f8be0079c531659141344cd1fd0a4f28419497f9722a3daafe3b4186f6b6457e060405160405180910390a35050565b600080fd5b600073ffffffffffffffffffffffffffffffffffffffff82169050919050565b6000620001df82620001b2565b9050919050565b620001f181620001d2565b8114620001fd57600080fd5b50565b6000815190506200021181620001e6565b92915050565b60008060408385031215620002315762000230620001ad565b5b6000620002418582860162000200565b9250506020620002548582860162000200565b9150509250929050565b615fb6806200026e6000396000f3fe608060405234801561001057600080fd5b50600436106101005760003560e01c80638a0bb6f911610097578063c045e88711610066578063c045e887146102d1578063cb2b48a5146102ed578063d954863c1461031d578063f2fde38b1461033957610100565b80638a0bb6f9146102375780638da5cb5b14610267578063a6fb97d114610285578063b33ff450146102a157610100565b80634c038c45116100d35780634c038c45146101b157806368591baa146101e1578063715018a6146101fd57806371d0c5ca1461020757610100565b806303b1ccdb146101055780632d0fc6b4146101215780633f19efbe14610151578063446f95b414610181575b600080fd5b61011f600480360381019061011a9190613691565b610355565b005b61013b60048036038101906101369190613719565b610cc9565b60405161014891906139aa565b60405180910390f35b61016b60048036038101906101669190613b60565b610ed3565b6040516101789190613c9a565b60405180910390f35b61019b60048036038101906101969190613d71565b61105a565b6040516101a89190613ddc565b60405180910390f35b6101cb60048036038101906101c69190613719565b6110d5565b6040516101d89190613e12565b60405180910390f35b6101fb60048036038101906101f69190613ed9565b6110f4565b005b6102056115ff565b005b610221600480360381019061021c9190613fb5565b611613565b60405161022e9190613ddc565b60405180910390f35b610251600480360381019061024c9190614015565b611684565b60405161025e9190614202565b60405180910390f35b61026f611a4e565b60405161027c9190614233565b60405180910390f35b61029f600480360381019061029a919061424e565b611a77565b005b6102bb60048036038101906102b69190613691565b611d9e565b6040516102c89190613ddc565b60405180910390f35b6102eb60048036038101906102e691906142f7565b612090565b005b6103076004803603810190610302919061438c565b612467565b6040516103149190613ddc565b60405180910390f35b6103376004803603810190610332919061424e565b612640565b005b610353600480360381019061034e91906143fb565b6129a7565b005b8073ffffffffffffffffffffffffffffffffffffffff163373ffffffffffffffffffffffffffffffffffffffff16146103c3576040517f08c379a00000000000000000000000000000000000000000000000000000000081526004016103ba906144ab565b60405180910390fd5b6000600360008781526020019081526020016000206004015490506000801b811415610424576040517f08c379a000000000000000000000000000000000000000000000000000000000815260040161041b90614517565b60405180910390fd5b60008311610467576040517f08c379a000000000000000000000000000000000000000000000000000000000815260040161045e90614583565b60405180910390fd5b6000600360008881526020019081526020016000209050600061048d8388888888611d9e565b90506000600760008381526020019081526020016000209050600073ffffffffffffffffffffffffffffffffffffffff168160000160009054906101000a900473ffffffffffffffffffffffffffffffffffffffff1673ffffffffffffffffffffffffffffffffffffffff1614610539576040517f08c379a0000000000000000000000000000000000000000000000000000000008152600401610530906145ef565b60405180910390fd5b848160000160006101000a81548173ffffffffffffffffffffffffffffffffffffffff021916908373ffffffffffffffffffffffffffffffffffffffff160217905550600083600201805480602002602001604051908101604052809291908181526020016000905b828210156106a257838290600052602060002090600202016040518060400160405290816000820160009054906101000a900473ffffffffffffffffffffffffffffffffffffffff1673ffffffffffffffffffffffffffffffffffffffff1673ffffffffffffffffffffffffffffffffffffffff168152602001600182016040518060400160405290816000820160009054906101000a900467ffffffffffffffff1667ffffffffffffffff1667ffffffffffffffff1681526020016000820160089054906101000a900467ffffffffffffffff1667ffffffffffffffff1667ffffffffffffffff168152505081525050815260200190600101906105a2565b50505050905060005b815181101561091a5760008560020182815481106106cc576106cb61460f565b5b906000526020600020906002020160000160009054906101000a900473ffffffffffffffffffffffffffffffffffffffff1690506000600560008e815260200190815260200160002060008373ffffffffffffffffffffffffffffffffffffffff1673ffffffffffffffffffffffffffffffffffffffff168152602001908152602001600020905060006107d385858151811061076c5761076b61460f565b5b6020026020010151602001516000015167ffffffffffffffff166107c587878151811061079c5761079b61460f565b5b6020026020010151602001516020015167ffffffffffffffff168e612a2b90919063ffffffff16565b612a4190919063ffffffff16565b9050816000015481111561081c576040517f08c379a00000000000000000000000000000000000000000000000000000000081526004016108139061468a565b60405180910390fd5b610833818360000154612a5790919063ffffffff16565b82600001819055508273ffffffffffffffffffffffffffffffffffffffff1663a9059cbb8b836040518363ffffffff1660e01b81526004016108769291906146b9565b602060405180830381600087803b15801561089057600080fd5b505af11580156108a4573d6000803e3d6000fd5b505050506040513d601f19601f820116820180604052508101906108c8919061470e565b507fb0c1e4d18ea737b756410ab0296768c15a87c12eeb368f360ecc5be61a11b4db8a84836040516108fc9392919061473b565b60405180910390a15050508080610912906147a1565b9150506106ab565b506000610a0d856002016000815481106109375761093661460f565b5b906000526020600020906002020160000160009054906101000a900473ffffffffffffffffffffffffffffffffffffffff16600360008e8152602001908152602001600020600101805461098a90614819565b80601f01602080910402602001604051908101604052809291908181526020018280546109b690614819565b8015610a035780601f106109d857610100808354040283529160200191610a03565b820191906000526020600020905b8154815290600101906020018083116109e657829003601f168201915b505050505061105a565b9050600860008281526020019081526020016000206040518060e0016040528087600201600081548110610a4457610a4361460f565b5b906000526020600020906002020160000160009054906101000a900473ffffffffffffffffffffffffffffffffffffffff1673ffffffffffffffffffffffffffffffffffffffff1681526020018973ffffffffffffffffffffffffffffffffffffffff1681526020018a8152602001438152602001428152602001600360008f81526020019081526020016000206001018054610ae090614819565b80601f0160208091040260200160405190810160405280929190818152602001828054610b0c90614819565b8015610b595780601f10610b2e57610100808354040283529160200191610b59565b820191906000526020600020905b815481529060010190602001808311610b3c57829003601f168201915b505050505081526020018c8c8080601f016020809104026020016040519081016040528093929190818152602001838380828437600081840152601f19601f82011690508083019250505050505050815250908060018154018082558091505060019003906000526020600020906007020160009091909190915060008201518160000160006101000a81548173ffffffffffffffffffffffffffffffffffffffff021916908373ffffffffffffffffffffffffffffffffffffffff16021790555060208201518160010160006101000a81548173ffffffffffffffffffffffffffffffffffffffff021916908373ffffffffffffffffffffffffffffffffffffffff16021790555060408201518160020155606082015181600301556080820151816004015560a0820151816005019080519060200190610c9c929190613384565b5060c0820151816006019080519060200190610cb9929190613384565b5050505050505050505050505050565b610cd161340a565b600360008381526020019081526020016000206040518060a001604052908160008201548152602001600182018054610d0990614819565b80601f0160208091040260200160405190810160405280929190818152602001828054610d3590614819565b8015610d825780601f10610d5757610100808354040283529160200191610d82565b820191906000526020600020905b815481529060010190602001808311610d6557829003601f168201915b5050505050815260200160028201805480602002602001604051908101604052809291908181526020016000905b82821015610eb057838290600052602060002090600202016040518060400160405290816000820160009054906101000a900473ffffffffffffffffffffffffffffffffffffffff1673ffffffffffffffffffffffffffffffffffffffff1673ffffffffffffffffffffffffffffffffffffffff168152602001600182016040518060400160405290816000820160009054906101000a900467ffffffffffffffff1667ffffffffffffffff1667ffffffffffffffff1681526020016000820160089054906101000a900467ffffffffffffffff1667ffffffffffffffff1667ffffffffffffffff16815250508152505081526020019060010190610db0565b505050508152602001600382015481526020016004820154815250509050919050565b606082829050845114610f1b576040517f08c379a0000000000000000000000000000000000000000000000000000000008152600401610f12906148bd565b60405180910390fd5b6000845167ffffffffffffffff811115610f3857610f376139cc565b5b604051908082528060200260200182016040528015610f665781602001602082028036833780820191505090505b50905060005b855181101561104e576000611002878381518110610f8d57610f8c61460f565b5b6020026020010151878785818110610fa857610fa761460f565b5b9050602002810190610fba91906148ec565b8080601f016020809104026020016040519081016040528093929190818152602001838380828437600081840152601f19601f8201169050808301925050505050505061105a565b9050600860008281526020019081526020016000208054905083838151811061102e5761102d61460f565b5b602002602001018181525050508080611046906147a1565b915050610f6c565b50809150509392505050565b6000600283836040516020016110719291906149d3565b60405160208183030381529060405260405161108d9190614a42565b602060405180830381855afa1580156110aa573d6000803e3d6000fd5b5050506040513d601f19601f820116820180604052508101906110cd9190614a6e565b905092915050565b6000806006600084815260200190815260200160002054119050919050565b6000600360008a81526020019081526020016000209050600260009054906101000a900473ffffffffffffffffffffffffffffffffffffffff1673ffffffffffffffffffffffffffffffffffffffff166323c849858260030154336040518363ffffffff1660e01b815260040161116c929190614a9b565b60206040518083038186803b15801561118457600080fd5b505afa158015611198573d6000803e3d6000fd5b505050506040513d601f19601f820116820180604052508101906111bc919061470e565b6111fb576040517f08c379a00000000000000000000000000000000000000000000000000000000081526004016111f290614b10565b60405180910390fd5b60005b868690508110156113b7576000898960405161121b929190614b55565b60405180910390206040516020016112339190614bdb565b60405160208183030381529060405280519060200120905060006112b082601b8786602081106112665761126561460f565b5b1a60f81b60f81c6112779190614c0e565b8b8b8781811061128a5761128961460f565b5b905060200201358a8a888181106112a4576112a361460f565b5b90506020020135612a6d565b9050600260009054906101000a900473ffffffffffffffffffffffffffffffffffffffff1673ffffffffffffffffffffffffffffffffffffffff166323c849858560030154836040518363ffffffff1660e01b8152600401611313929190614a9b565b60206040518083038186803b15801561132b57600080fd5b505afa15801561133f573d6000803e3d6000fd5b505050506040513d601f19601f82011682018060405250810190611363919061470e565b6113a2576040517f08c379a000000000000000000000000000000000000000000000000000000000815260040161139990614c91565b60405180910390fd5b505080806113af906147a1565b9150506111fe565b506000806114088a8a8080601f016020809104026020016040519081016040528093929190818152602001838380828437600081840152601f19601f82011690508083019250505050505050612a98565b915091506000600167ffffffffffffffff811115611429576114286139cc565b5b6040519080825280602002602001820160405280156114575781602001602082028036833780820191505090505b509050818160008151811061146f5761146e61460f565b5b60200260200101818152505060006006600084815260200190815260200160002054146114d1576040517f08c379a00000000000000000000000000000000000000000000000000000000081526004016114c890614cfd565b60405180910390fd5b6000600160009054906101000a900473ffffffffffffffffffffffffffffffffffffffff1673ffffffffffffffffffffffffffffffffffffffff16637d9778368660040154846040518363ffffffff1660e01b8152600401611534929190614dcc565b602060405180830381600087803b15801561154e57600080fd5b505af1158015611562573d6000803e3d6000fd5b505050506040513d601f19601f820116820180604052508101906115869190614e11565b905061159c600182612abc90919063ffffffff16565b60066000858152602001908152602001600020819055507f6319bf84e3d2c97dd1991c07818c14950ceb6f48ce6d85f063be3c60905ea1b98d3386866040516115e89493929190614e3e565b60405180910390a150505050505050505050505050565b611607612ad2565b6116116000612b50565b565b6000806116648585858080601f016020809104026020016040519081016040528093929190818152602001838380828437600081840152601f19601f8201169050808301925050505050505061105a565b905060046000828152602001908152602001600020549150509392505050565b606060006116d68787878080601f016020809104026020016040519081016040528093929190818152602001838380828437600081840152601f19601f8201169050808301925050505050505061105a565b9050600860008281526020019081526020016000208054905083111580156116fe5750600084115b61173d576040517f08c379a000000000000000000000000000000000000000000000000000000000815260040161173490614ecf565b60405180910390fd5b600061176560016117578787612a5790919063ffffffff16565b612abc90919063ffffffff16565b90508067ffffffffffffffff811115611781576117806139cc565b5b6040519080825280602002602001820160405280156117ba57816020015b6117a7613442565b81526020019060019003908161179f5790505b50925060006001866117cc9190614eef565b90505b84811015611a42576008600084815260200190815260200160002081815481106117fc576117fb61460f565b5b90600052602060002090600702016040518060e00160405290816000820160009054906101000a900473ffffffffffffffffffffffffffffffffffffffff1673ffffffffffffffffffffffffffffffffffffffff1673ffffffffffffffffffffffffffffffffffffffff1681526020016001820160009054906101000a900473ffffffffffffffffffffffffffffffffffffffff1673ffffffffffffffffffffffffffffffffffffffff1673ffffffffffffffffffffffffffffffffffffffff1681526020016002820154815260200160038201548152602001600482015481526020016005820180546118ef90614819565b80601f016020809104026020016040519081016040528092919081815260200182805461191b90614819565b80156119685780601f1061193d57610100808354040283529160200191611968565b820191906000526020600020905b81548152906001019060200180831161194b57829003601f168201915b5050505050815260200160068201805461198190614819565b80601f01602080910402602001604051908101604052809291908181526020018280546119ad90614819565b80156119fa5780601f106119cf576101008083540402835291602001916119fa565b820191906000526020600020905b8154815290600101906020018083116119dd57829003601f168201915b505050505081525050848281518110611a1657611a1561460f565b5b60200260200101819052508080611a2c906147a1565b9150508080611a3a906147a1565b9150506117cf565b50505095945050505050565b60008060009054906101000a900473ffffffffffffffffffffffffffffffffffffffff16905090565b6000600360008581526020019081526020016000209050600260009054906101000a900473ffffffffffffffffffffffffffffffffffffffff1673ffffffffffffffffffffffffffffffffffffffff16639a96679e8260030154336040518363ffffffff1660e01b8152600401611aef929190614a9b565b60206040518083038186803b158015611b0757600080fd5b505afa158015611b1b573d6000803e3d6000fd5b505050506040513d601f19601f82011682018060405250810190611b3f919061470e565b611b7e576040517f08c379a0000000000000000000000000000000000000000000000000000000008152600401611b7590614f6f565b60405180910390fd5b611caf8382600201805480602002602001604051908101604052809291908181526020016000905b82821015611ca657838290600052602060002090600202016040518060400160405290816000820160009054906101000a900473ffffffffffffffffffffffffffffffffffffffff1673ffffffffffffffffffffffffffffffffffffffff1673ffffffffffffffffffffffffffffffffffffffff168152602001600182016040518060400160405290816000820160009054906101000a900467ffffffffffffffff1667ffffffffffffffff1667ffffffffffffffff1681526020016000820160089054906101000a900467ffffffffffffffff1667ffffffffffffffff1667ffffffffffffffff16815250508152505081526020019060010190611ba6565b50505050612c14565b50611d16826005600087815260200190815260200160002060008673ffffffffffffffffffffffffffffffffffffffff1673ffffffffffffffffffffffffffffffffffffffff16815260200190815260200160002060000154612a5790919063ffffffff16565b6005600086815260200190815260200160002060008573ffffffffffffffffffffffffffffffffffffffff1673ffffffffffffffffffffffffffffffffffffffff16815260200190815260200160002060000181905550611d9833838573ffffffffffffffffffffffffffffffffffffffff16612ca09092919063ffffffff16565b50505050565b60006060806000611df488888080601f016020809104026020016040519081016040528093929190818152602001838380828437600081840152601f19601f820116905080830192505050505050508787612467565b90506000611e1f60016006600085815260200190815260200160002054612a5790919063ffffffff16565b9050600160009054906101000a900473ffffffffffffffffffffffffffffffffffffffff1673ffffffffffffffffffffffffffffffffffffffff16631b32d71a8b836040518363ffffffff1660e01b8152600401611e7e929190614f8f565b60006040518083038186803b158015611e9657600080fd5b505afa158015611eaa573d6000803e3d6000fd5b505050506040513d6000823e3d601f19601f82011682018060405250810190611ed3919061513e565b909192509091508094508195505050600160009054906101000a900473ffffffffffffffffffffffffffffffffffffffff1673ffffffffffffffffffffffffffffffffffffffff16631669b10e8b600160009054906101000a900473ffffffffffffffffffffffffffffffffffffffff1673ffffffffffffffffffffffffffffffffffffffff1663fd2973ca8e866040518363ffffffff1660e01b8152600401611f7e929190614f8f565b60206040518083038186803b158015611f9657600080fd5b505afa158015611faa573d6000803e3d6000fd5b505050506040513d601f19601f82011682018060405250810190611fce9190614e11565b8588886040518663ffffffff1660e01b8152600401611ff195949392919061529b565b60206040518083038186803b15801561200957600080fd5b505afa15801561201d573d6000803e3d6000fd5b505050506040513d601f19601f82011682018060405250810190612041919061470e565b612080576040517f08c379a000000000000000000000000000000000000000000000000000000000815260040161207790615348565b60405180910390fd5b8194505050505095945050505050565b6000600260009054906101000a900473ffffffffffffffffffffffffffffffffffffffff1673ffffffffffffffffffffffffffffffffffffffff166376e2775583336040518363ffffffff1660e01b81526004016120ef929190614a9b565b60206040518083038186803b15801561210757600080fd5b505afa15801561211b573d6000803e3d6000fd5b505050506040513d601f19601f8201168201806040525081019061213f919061470e565b905080612181576040517f08c379a000000000000000000000000000000000000000000000000000000000815260040161217890614f6f565b60405180910390fd5b6000600160009054906101000a900473ffffffffffffffffffffffffffffffffffffffff1673ffffffffffffffffffffffffffffffffffffffff16632a99732a84600a6040518363ffffffff1660e01b81526004016121e19291906153ad565b602060405180830381600087803b1580156121fb57600080fd5b505af115801561220f573d6000803e3d6000fd5b505050506040513d601f19601f820116820180604052508101906122339190614a6e565b905060008036604051612247929190614b55565b604051809103902090506000888860008181106122675761226661460f565b5b905060600201600001602081019061227f91906143fb565b905084600360008481526020019081526020016000206003018190555082600360008481526020019081526020016000206004018190555081600360008481526020019081526020016000206000018190555086866003600085815260200190815260200160002060010191906122f79291906134ab565b5060006123488289898080601f016020809104026020016040519081016040528093929190818152602001838380828437600081840152601f19601f8201169050808301925050505050505061105a565b905082600460008381526020019081526020016000208190555060005b8a8a905081101561241d576123a48b8b838181106123865761238561460f565b5b90506060020160200180360381019061239f9190615457565b612d26565b600360008581526020019081526020016000206002018b8b838181106123cd576123cc61460f565b5b9050606002019080600181540180825580915050600190039060005260206000209060020201600090919091909150818161240891906156d0565b50508080612415906147a1565b915050612365565b507f909c724b9d08d0463115fc7fa6d2c8e51e6eafa867725be497bdb9a53a6cac4f83838a8a604051612453949392919061570b565b60405180910390a150505050505050505050565b60008060028560405160200161247d919061574b565b6040516020818303038152906040526040516124999190614a42565b602060405180830381855afa1580156124b6573d6000803e3d6000fd5b5050506040513d601f19601f820116820180604052508101906124d99190614a6e565b905060006002856040516020016124f09190615783565b60405160208183030381529060405260405161250c9190614a42565b602060405180830381855afa158015612529573d6000803e3d6000fd5b5050506040513d601f19601f8201168201806040525081019061254c9190614a6e565b90506000600285604051602001612563919061579e565b60405160208183030381529060405260405161257f9190614a42565b602060405180830381855afa15801561259c573d6000803e3d6000fd5b5050506040513d601f19601f820116820180604052508101906125bf9190614a6e565b905060028383836040516020016125d8939291906157b9565b6040516020818303038152906040526040516125f49190614a42565b602060405180830381855afa158015612611573d6000803e3d6000fd5b5050506040513d601f19601f820116820180604052508101906126349190614a6e565b93505050509392505050565b6000600360008581526020019081526020016000209050600260009054906101000a900473ffffffffffffffffffffffffffffffffffffffff1673ffffffffffffffffffffffffffffffffffffffff16639a96679e8260030154336040518363ffffffff1660e01b81526004016126b8929190614a9b565b60206040518083038186803b1580156126d057600080fd5b505afa1580156126e4573d6000803e3d6000fd5b505050506040513d601f19601f82011682018060405250810190612708919061470e565b612747576040517f08c379a000000000000000000000000000000000000000000000000000000000815260040161273e90614f6f565b60405180910390fd5b6128788382600201805480602002602001604051908101604052809291908181526020016000905b8282101561286f57838290600052602060002090600202016040518060400160405290816000820160009054906101000a900473ffffffffffffffffffffffffffffffffffffffff1673ffffffffffffffffffffffffffffffffffffffff1673ffffffffffffffffffffffffffffffffffffffff168152602001600182016040518060400160405290816000820160009054906101000a900467ffffffffffffffff1667ffffffffffffffff1667ffffffffffffffff1681526020016000820160089054906101000a900467ffffffffffffffff1667ffffffffffffffff1667ffffffffffffffff1681525050815250508152602001906001019061276f565b50505050612c14565b6128b7576040517f08c379a00000000000000000000000000000000000000000000000000000000081526004016128ae9061583c565b60405180910390fd5b6128e43330848673ffffffffffffffffffffffffffffffffffffffff16612d94909392919063ffffffff16565b61294a826005600087815260200190815260200160002060008673ffffffffffffffffffffffffffffffffffffffff1673ffffffffffffffffffffffffffffffffffffffff16815260200190815260200160002060000154612abc90919063ffffffff16565b6005600086815260200190815260200160002060008573ffffffffffffffffffffffffffffffffffffffff1673ffffffffffffffffffffffffffffffffffffffff1681526020019081526020016000206000018190555050505050565b6129af612ad2565b600073ffffffffffffffffffffffffffffffffffffffff168173ffffffffffffffffffffffffffffffffffffffff161415612a1f576040517f08c379a0000000000000000000000000000000000000000000000000000000008152600401612a16906158ce565b60405180910390fd5b612a2881612b50565b50565b60008183612a3991906158ee565b905092915050565b60008183612a4f9190615977565b905092915050565b60008183612a659190614eef565b905092915050565b6000806000612a7e87878787612e1d565b91509150612a8b81612f2a565b8192505050949350505050565b60008082806020019051810190612aaf91906159a8565b8092508193505050915091565b60008183612aca91906159e8565b905092915050565b612ada6130ff565b73ffffffffffffffffffffffffffffffffffffffff16612af8611a4e565b73ffffffffffffffffffffffffffffffffffffffff1614612b4e576040517f08c379a0000000000000000000000000000000000000000000000000000000008152600401612b4590615a8a565b60405180910390fd5b565b60008060009054906101000a900473ffffffffffffffffffffffffffffffffffffffff169050816000806101000a81548173ffffffffffffffffffffffffffffffffffffffff021916908373ffffffffffffffffffffffffffffffffffffffff1602179055508173ffffffffffffffffffffffffffffffffffffffff168173ffffffffffffffffffffffffffffffffffffffff167f8be0079c531659141344cd1fd0a4f28419497f9722a3daafe3b4186f6b6457e060405160405180910390a35050565b600080600090505b8251811015612c94578373ffffffffffffffffffffffffffffffffffffffff16838281518110612c4f57612c4e61460f565b5b60200260200101516000015173ffffffffffffffffffffffffffffffffffffffff161415612c81576001915050612c9a565b8080612c8c906147a1565b915050612c1c565b50600090505b92915050565b612d218363a9059cbb60e01b8484604051602401612cbf9291906146b9565b604051602081830303815290604052907bffffffffffffffffffffffffffffffffffffffffffffffffffffffff19166020820180517bffffffffffffffffffffffffffffffffffffffffffffffffffffffff8381831617835250505050613107565b505050565b6000816000015167ffffffffffffffff16118015612d5257506000816020015167ffffffffffffffff16115b612d91576040517f08c379a0000000000000000000000000000000000000000000000000000000008152600401612d8890615af6565b60405180910390fd5b50565b612e17846323b872dd60e01b858585604051602401612db59392919061473b565b604051602081830303815290604052907bffffffffffffffffffffffffffffffffffffffffffffffffffffffff19166020820180517bffffffffffffffffffffffffffffffffffffffffffffffffffffffff8381831617835250505050613107565b50505050565b6000807f7fffffffffffffffffffffffffffffff5d576e7357a4501ddfe92f46681b20a08360001c1115612e58576000600391509150612f21565b601b8560ff1614158015612e705750601c8560ff1614155b15612e82576000600491509150612f21565b600060018787878760405160008152602001604052604051612ea79493929190615b25565b6020604051602081039080840390855afa158015612ec9573d6000803e3d6000fd5b505050602060405103519050600073ffffffffffffffffffffffffffffffffffffffff168173ffffffffffffffffffffffffffffffffffffffff161415612f1857600060019250925050612f21565b80600092509250505b94509492505050565b60006004811115612f3e57612f3d615b6a565b5b816004811115612f5157612f50615b6a565b5b1415612f5c576130fc565b60016004811115612f7057612f6f615b6a565b5b816004811115612f8357612f82615b6a565b5b1415612fc4576040517f08c379a0000000000000000000000000000000000000000000000000000000008152600401612fbb90615be5565b60405180910390fd5b60026004811115612fd857612fd7615b6a565b5b816004811115612feb57612fea615b6a565b5b141561302c576040517f08c379a000000000000000000000000000000000000000000000000000000000815260040161302390615c51565b60405180910390fd5b600360048111156130405761303f615b6a565b5b81600481111561305357613052615b6a565b5b1415613094576040517f08c379a000000000000000000000000000000000000000000000000000000000815260040161308b90615ce3565b60405180910390fd5b6004808111156130a7576130a6615b6a565b5b8160048111156130ba576130b9615b6a565b5b14156130fb576040517f08c379a00000000000000000000000000000000000000000000000000000000081526004016130f290615d75565b60405180910390fd5b5b50565b600033905090565b6000613169826040518060400160405280602081526020017f5361666545524332303a206c6f772d6c6576656c2063616c6c206661696c65648152508573ffffffffffffffffffffffffffffffffffffffff166131ce9092919063ffffffff16565b90506000815111156131c95780806020019051810190613189919061470e565b6131c8576040517f08c379a00000000000000000000000000000000000000000000000000000000081526004016131bf90615e07565b60405180910390fd5b5b505050565b60606131dd84846000856131e6565b90509392505050565b60608247101561322b576040517f08c379a000000000000000000000000000000000000000000000000000000000815260040161322290615e99565b60405180910390fd5b613234856132fa565b613273576040517f08c379a000000000000000000000000000000000000000000000000000000000815260040161326a90615f05565b60405180910390fd5b6000808673ffffffffffffffffffffffffffffffffffffffff16858760405161329c9190614a42565b60006040518083038185875af1925050503d80600081146132d9576040519150601f19603f3d011682016040523d82523d6000602084013e6132de565b606091505b50915091506132ee82828661331d565b92505050949350505050565b6000808273ffffffffffffffffffffffffffffffffffffffff163b119050919050565b6060831561332d5782905061337d565b6000835111156133405782518084602001fd5b816040517f08c379a00000000000000000000000000000000000000000000000000000000081526004016133749190615f5e565b60405180910390fd5b9392505050565b82805461339090614819565b90600052602060002090601f0160209004810192826133b257600085556133f9565b82601f106133cb57805160ff19168380011785556133f9565b828001600101855582156133f9579182015b828111156133f85782518255916020019190600101906133dd565b5b5090506134069190613531565b5090565b6040518060a0016040528060008019168152602001606081526020016060815260200160008019168152602001600080191681525090565b6040518060e00160405280600073ffffffffffffffffffffffffffffffffffffffff168152602001600073ffffffffffffffffffffffffffffffffffffffff16815260200160008152602001600081526020016000815260200160608152602001606081525090565b8280546134b790614819565b90600052602060002090601f0160209004810192826134d95760008555613520565b82601f106134f257803560ff1916838001178555613520565b82800160010185558215613520579182015b8281111561351f578235825591602001919060010190613504565b5b50905061352d9190613531565b5090565b5b8082111561354a576000816000905550600101613532565b5090565b6000604051905090565b600080fd5b600080fd5b6000819050919050565b61357581613562565b811461358057600080fd5b50565b6000813590506135928161356c565b92915050565b600080fd5b600080fd5b600080fd5b60008083601f8401126135bd576135bc613598565b5b8235905067ffffffffffffffff8111156135da576135d961359d565b5b6020830191508360018202830111156135f6576135f56135a2565b5b9250929050565b6000819050919050565b613610816135fd565b811461361b57600080fd5b50565b60008135905061362d81613607565b92915050565b600073ffffffffffffffffffffffffffffffffffffffff82169050919050565b600061365e82613633565b9050919050565b61366e81613653565b811461367957600080fd5b50565b60008135905061368b81613665565b92915050565b6000806000806000608086880312156136ad576136ac613558565b5b60006136bb88828901613583565b955050602086013567ffffffffffffffff8111156136dc576136db61355d565b5b6136e8888289016135a7565b945094505060406136fb8882890161361e565b925050606061370c8882890161367c565b9150509295509295909350565b60006020828403121561372f5761372e613558565b5b600061373d84828501613583565b91505092915050565b61374f81613562565b82525050565b600081519050919050565b600082825260208201905092915050565b60005b8381101561378f578082015181840152602081019050613774565b8381111561379e576000848401525b50505050565b6000601f19601f8301169050919050565b60006137c082613755565b6137ca8185613760565b93506137da818560208601613771565b6137e3816137a4565b840191505092915050565b600081519050919050565b600082825260208201905092915050565b6000819050602082019050919050565b61382381613653565b82525050565b600067ffffffffffffffff82169050919050565b61384681613829565b82525050565b604082016000820151613862600085018261383d565b506020820151613875602085018261383d565b50505050565b606082016000820151613891600085018261381a565b5060208201516138a4602085018261384c565b50505050565b60006138b6838361387b565b60608301905092915050565b6000602082019050919050565b60006138da826137ee565b6138e481856137f9565b93506138ef8361380a565b8060005b8381101561392057815161390788826138aa565b9750613912836138c2565b9250506001810190506138f3565b5085935050505092915050565b600060a0830160008301516139456000860182613746565b506020830151848203602086015261395d82826137b5565b9150506040830151848203604086015261397782826138cf565b915050606083015161398c6060860182613746565b50608083015161399f6080860182613746565b508091505092915050565b600060208201905081810360008301526139c4818461392d565b905092915050565b7f4e487b7100000000000000000000000000000000000000000000000000000000600052604160045260246000fd5b613a04826137a4565b810181811067ffffffffffffffff82111715613a2357613a226139cc565b5b80604052505050565b6000613a3661354e565b9050613a4282826139fb565b919050565b600067ffffffffffffffff821115613a6257613a616139cc565b5b602082029050602081019050919050565b6000613a86613a8184613a47565b613a2c565b90508083825260208201905060208402830185811115613aa957613aa86135a2565b5b835b81811015613ad25780613abe888261367c565b845260208401935050602081019050613aab565b5050509392505050565b600082601f830112613af157613af0613598565b5b8135613b01848260208601613a73565b91505092915050565b60008083601f840112613b2057613b1f613598565b5b8235905067ffffffffffffffff811115613b3d57613b3c61359d565b5b602083019150836020820283011115613b5957613b586135a2565b5b9250929050565b600080600060408486031215613b7957613b78613558565b5b600084013567ffffffffffffffff811115613b9757613b9661355d565b5b613ba386828701613adc565b935050602084013567ffffffffffffffff811115613bc457613bc361355d565b5b613bd086828701613b0a565b92509250509250925092565b600081519050919050565b600082825260208201905092915050565b6000819050602082019050919050565b613c11816135fd565b82525050565b6000613c238383613c08565b60208301905092915050565b6000602082019050919050565b6000613c4782613bdc565b613c518185613be7565b9350613c5c83613bf8565b8060005b83811015613c8d578151613c748882613c17565b9750613c7f83613c2f565b925050600181019050613c60565b5085935050505092915050565b60006020820190508181036000830152613cb48184613c3c565b905092915050565b600080fd5b600067ffffffffffffffff821115613cdc57613cdb6139cc565b5b613ce5826137a4565b9050602081019050919050565b82818337600083830152505050565b6000613d14613d0f84613cc1565b613a2c565b905082815260208101848484011115613d3057613d2f613cbc565b5b613d3b848285613cf2565b509392505050565b600082601f830112613d5857613d57613598565b5b8135613d68848260208601613d01565b91505092915050565b60008060408385031215613d8857613d87613558565b5b6000613d968582860161367c565b925050602083013567ffffffffffffffff811115613db757613db661355d565b5b613dc385828601613d43565b9150509250929050565b613dd681613562565b82525050565b6000602082019050613df16000830184613dcd565b92915050565b60008115159050919050565b613e0c81613df7565b82525050565b6000602082019050613e276000830184613e03565b92915050565b60008083601f840112613e4357613e42613598565b5b8235905067ffffffffffffffff811115613e6057613e5f61359d565b5b602083019150836001820283011115613e7c57613e7b6135a2565b5b9250929050565b60008083601f840112613e9957613e98613598565b5b8235905067ffffffffffffffff811115613eb657613eb561359d565b5b602083019150836020820283011115613ed257613ed16135a2565b5b9250929050565b60008060008060008060008060a0898b031215613ef957613ef8613558565b5b6000613f078b828c01613583565b985050602089013567ffffffffffffffff811115613f2857613f2761355d565b5b613f348b828c01613e2d565b9750975050604089013567ffffffffffffffff811115613f5757613f5661355d565b5b613f638b828c01613e83565b9550955050606089013567ffffffffffffffff811115613f8657613f8561355d565b5b613f928b828c01613e83565b93509350506080613fa58b828c01613583565b9150509295985092959890939650565b600080600060408486031215613fce57613fcd613558565b5b6000613fdc8682870161367c565b935050602084013567ffffffffffffffff811115613ffd57613ffc61355d565b5b614009868287016135a7565b92509250509250925092565b60008060008060006080868803121561403157614030613558565b5b600061403f8882890161367c565b955050602086013567ffffffffffffffff8111156140605761405f61355d565b5b61406c888289016135a7565b9450945050604061407f8882890161361e565b92505060606140908882890161361e565b9150509295509295909350565b600081519050919050565b600082825260208201905092915050565b6000819050602082019050919050565b600060e0830160008301516140e1600086018261381a565b5060208301516140f4602086018261381a565b5060408301516141076040860182613c08565b50606083015161411a6060860182613c08565b50608083015161412d6080860182613c08565b5060a083015184820360a086015261414582826137b5565b91505060c083015184820360c086015261415f82826137b5565b9150508091505092915050565b600061417883836140c9565b905092915050565b6000602082019050919050565b60006141988261409d565b6141a281856140a8565b9350836020820285016141b4856140b9565b8060005b858110156141f057848403895281516141d1858261416c565b94506141dc83614180565b925060208a019950506001810190506141b8565b50829750879550505050505092915050565b6000602082019050818103600083015261421c818461418d565b905092915050565b61422d81613653565b82525050565b60006020820190506142486000830184614224565b92915050565b60008060006060848603121561426757614266613558565b5b600061427586828701613583565b93505060206142868682870161367c565b92505060406142978682870161361e565b9150509250925092565b60008083601f8401126142b7576142b6613598565b5b8235905067ffffffffffffffff8111156142d4576142d361359d565b5b6020830191508360608202830111156142f0576142ef6135a2565b5b9250929050565b60008060008060006060868803121561431357614312613558565b5b600086013567ffffffffffffffff8111156143315761433061355d565b5b61433d888289016142a1565b9550955050602086013567ffffffffffffffff8111156143605761435f61355d565b5b61436c888289016135a7565b9350935050604061437f88828901613583565b9150509295509295909350565b6000806000606084860312156143a5576143a4613558565b5b600084013567ffffffffffffffff8111156143c3576143c261355d565b5b6143cf86828701613d43565b93505060206143e08682870161361e565b92505060406143f18682870161367c565b9150509250925092565b60006020828403121561441157614410613558565b5b600061441f8482850161367c565b91505092915050565b600082825260208201905092915050565b7f6f6e6c7920726563656976657220686173207065726d697373696f6e20746f2060008201527f7377617020746f6b656e00000000000000000000000000000000000000000000602082015250565b6000614495602a83614428565b91506144a082614439565b604082019050919050565b600060208201905081810360008301526144c481614488565b9050919050565b7f746f6b656e20737761702070616972206e6f7420666f756e6400000000000000600082015250565b6000614501601983614428565b915061450c826144cb565b602082019050919050565b60006020820190508181036000830152614530816144f4565b9050919050565b7f696e76616c696420616d6f756e74000000000000000000000000000000000000600082015250565b600061456d600e83614428565b915061457882614537565b602082019050919050565b6000602082019050818103600083015261459c81614560565b9050919050565b7f616c726561647920636c61696d65640000000000000000000000000000000000600082015250565b60006145d9600f83614428565b91506145e4826145a3565b602082019050919050565b60006020820190508181036000830152614608816145cc565b9050919050565b7f4e487b7100000000000000000000000000000000000000000000000000000000600052603260045260246000fd5b7f6465706f736974206e6f7420656e6f7567687400000000000000000000000000600082015250565b6000614674601383614428565b915061467f8261463e565b602082019050919050565b600060208201905081810360008301526146a381614667565b9050919050565b6146b3816135fd565b82525050565b60006040820190506146ce6000830185614224565b6146db60208301846146aa565b9392505050565b6146eb81613df7565b81146146f657600080fd5b50565b600081519050614708816146e2565b92915050565b60006020828403121561472457614723613558565b5b6000614732848285016146f9565b91505092915050565b60006060820190506147506000830186614224565b61475d6020830185614224565b61476a60408301846146aa565b949350505050565b7f4e487b7100000000000000000000000000000000000000000000000000000000600052601160045260246000fd5b60006147ac826135fd565b91507fffffffffffffffffffffffffffffffffffffffffffffffffffffffffffffffff8214156147df576147de614772565b5b600182019050919050565b7f4e487b7100000000000000000000000000000000000000000000000000000000600052602260045260246000fd5b6000600282049050600182168061483157607f821691505b60208210811415614845576148446147ea565b5b50919050565b7f496e76616c696420746f6b656e732f746172676574436861696e49647320696e60008201527f7075740000000000000000000000000000000000000000000000000000000000602082015250565b60006148a7602383614428565b91506148b28261484b565b604082019050919050565b600060208201905081810360008301526148d68161489a565b9050919050565b600080fd5b600080fd5b600080fd5b60008083356001602003843603038112614909576149086148dd565b5b80840192508235915067ffffffffffffffff82111561492b5761492a6148e2565b5b602083019250600182023603831315614947576149466148e7565b5b509250929050565b60008160601b9050919050565b60006149678261494f565b9050919050565b60006149798261495c565b9050919050565b61499161498c82613653565b61496e565b82525050565b600081905092915050565b60006149ad82613755565b6149b78185614997565b93506149c7818560208601613771565b80840191505092915050565b60006149df8285614980565b6014820191506149ef82846149a2565b91508190509392505050565b600081519050919050565b600081905092915050565b6000614a1c826149fb565b614a268185614a06565b9350614a36818560208601613771565b80840191505092915050565b6000614a4e8284614a11565b915081905092915050565b600081519050614a688161356c565b92915050565b600060208284031215614a8457614a83613558565b5b6000614a9284828501614a59565b91505092915050565b6000604082019050614ab06000830185613dcd565b614abd6020830184614224565b9392505050565b7f4e6f207065726d697373696f6e20746f207472616e736d697400000000000000600082015250565b6000614afa601983614428565b9150614b0582614ac4565b602082019050919050565b60006020820190508181036000830152614b2981614aed565b9050919050565b6000614b3c8385614a06565b9350614b49838584613cf2565b82840190509392505050565b6000614b62828486614b30565b91508190509392505050565b7f19457468657265756d205369676e6564204d6573736167653a0a333200000000600082015250565b6000614ba4601c83614997565b9150614baf82614b6e565b601c82019050919050565b6000819050919050565b614bd5614bd082613562565b614bba565b82525050565b6000614be682614b97565b9150614bf28284614bc4565b60208201915081905092915050565b600060ff82169050919050565b6000614c1982614c01565b9150614c2483614c01565b92508260ff03821115614c3a57614c39614772565b5b828201905092915050565b7f4e6f207065726d697373696f6e20746f207369676e0000000000000000000000600082015250565b6000614c7b601583614428565b9150614c8682614c45565b602082019050919050565b60006020820190508181036000830152614caa81614c6e565b9050919050565b7f616c7265616479207265636f7264656400000000000000000000000000000000600082015250565b6000614ce7601083614428565b9150614cf282614cb1565b602082019050919050565b60006020820190508181036000830152614d1681614cda565b9050919050565b600081519050919050565b600082825260208201905092915050565b6000819050602082019050919050565b6000614d558383613746565b60208301905092915050565b6000602082019050919050565b6000614d7982614d1d565b614d838185614d28565b9350614d8e83614d39565b8060005b83811015614dbf578151614da68882614d49565b9750614db183614d61565b925050600181019050614d92565b5085935050505092915050565b6000604082019050614de16000830185613dcd565b8181036020830152614df38184614d6e565b90509392505050565b600081519050614e0b81613607565b92915050565b600060208284031215614e2757614e26613558565b5b6000614e3584828501614dfc565b91505092915050565b6000608082019050614e536000830187613dcd565b614e606020830186614224565b614e6d60408301856146aa565b614e7a6060830184613dcd565b95945050505050565b7f496e76616c696420696e70757400000000000000000000000000000000000000600082015250565b6000614eb9600d83614428565b9150614ec482614e83565b602082019050919050565b60006020820190508181036000830152614ee881614eac565b9050919050565b6000614efa826135fd565b9150614f05836135fd565b925082821015614f1857614f17614772565b5b828203905092915050565b7f4e6f207065726d697373696f6e2e000000000000000000000000000000000000600082015250565b6000614f59600e83614428565b9150614f6482614f23565b602082019050919050565b60006020820190508181036000830152614f8881614f4c565b9050919050565b6000604082019050614fa46000830185613dcd565b614fb160208301846146aa565b9392505050565b600067ffffffffffffffff821115614fd357614fd26139cc565b5b602082029050602081019050919050565b6000614ff7614ff284614fb8565b613a2c565b9050808382526020820190506020840283018581111561501a576150196135a2565b5b835b81811015615043578061502f8882614a59565b84526020840193505060208101905061501c565b5050509392505050565b600082601f83011261506257615061613598565b5b8151615072848260208601614fe4565b91505092915050565b600067ffffffffffffffff821115615096576150956139cc565b5b602082029050602081019050919050565b60006150ba6150b58461507b565b613a2c565b905080838252602082019050602084028301858111156150dd576150dc6135a2565b5b835b8181101561510657806150f288826146f9565b8452602084019350506020810190506150df565b5050509392505050565b600082601f83011261512557615124613598565b5b81516151358482602086016150a7565b91505092915050565b6000806000806080858703121561515857615157613558565b5b600061516687828801614dfc565b945050602061517787828801614dfc565b935050604085015167ffffffffffffffff8111156151985761519761355d565b5b6151a48782880161504d565b925050606085015167ffffffffffffffff8111156151c5576151c461355d565b5b6151d187828801615110565b91505092959194509250565b600081519050919050565b600082825260208201905092915050565b6000819050602082019050919050565b61521281613df7565b82525050565b60006152248383615209565b60208301905092915050565b6000602082019050919050565b6000615248826151dd565b61525281856151e8565b935061525d836151f9565b8060005b8381101561528e5781516152758882615218565b975061528083615230565b925050600181019050615261565b5085935050505092915050565b600060a0820190506152b06000830188613dcd565b6152bd60208301876146aa565b6152ca6040830186613dcd565b81810360608301526152dc8185614d6e565b905081810360808301526152f0818461523d565b90509695505050505050565b7f6661696c656420746f207377617020746f6b656e000000000000000000000000600082015250565b6000615332601483614428565b915061533d826152fc565b602082019050919050565b6000602082019050818103600083015261536181615325565b9050919050565b6000819050919050565b6000819050919050565b600061539761539261538d84615368565b615372565b6135fd565b9050919050565b6153a78161537c565b82525050565b60006040820190506153c26000830185613dcd565b6153cf602083018461539e565b9392505050565b600080fd5b6153e481613829565b81146153ef57600080fd5b50565b600081359050615401816153db565b92915050565b60006040828403121561541d5761541c6153d6565b5b6154276040613a2c565b90506000615437848285016153f2565b600083015250602061544b848285016153f2565b60208301525092915050565b60006040828403121561546d5761546c613558565b5b600061547b84828501615407565b91505092915050565b6000813561549181613665565b80915050919050565b60008160001b9050919050565b600073ffffffffffffffffffffffffffffffffffffffff6154c78461549a565b9350801983169250808416831791505092915050565b60006154f86154f36154ee84613633565b615372565b613633565b9050919050565b600061550a826154dd565b9050919050565b600061551c826154ff565b9050919050565b6000819050919050565b61553682615511565b61554961554282615523565b83546154a7565b8255505050565b6000813561555d816153db565b80915050919050565b600067ffffffffffffffff61557a8461549a565b9350801983169250808416831791505092915050565b60006155ab6155a66155a184613829565b615372565b613829565b9050919050565b6000819050919050565b6155c582615590565b6155d86155d1826155b2565b8354615566565b8255505050565b60008160401b9050919050565b60006fffffffffffffffff0000000000000000615608846155df565b9350801983169250808416831791505092915050565b61562782615590565b61563a615633826155b2565b83546155ec565b8255505050565b60008101600083018061565381615550565b905061565f81846155bc565b50505060008101602083018061567481615550565b9050615680818461561e565b5050505050565b6156918282615641565b5050565b6000810160008301806156a781615484565b90506156b3818461552d565b5050506001810160208301806156c98184615687565b5050505050565b6156da8282615695565b5050565b60006156ea8385614428565b93506156f7838584613cf2565b615700836137a4565b840190509392505050565b60006060820190506157206000830187613dcd565b61572d6020830186614224565b81810360408301526157408184866156de565b905095945050505050565b600061575782846149a2565b915081905092915050565b6000819050919050565b61577d615778826135fd565b615762565b82525050565b600061578f828461576c565b60208201915081905092915050565b60006157aa8284614980565b60148201915081905092915050565b60006060820190506157ce6000830186613dcd565b6157db6020830185613dcd565b6157e86040830184613dcd565b949350505050565b7f496e76616c696420746f6b656e00000000000000000000000000000000000000600082015250565b6000615826600d83614428565b9150615831826157f0565b602082019050919050565b6000602082019050818103600083015261585581615819565b9050919050565b7f4f776e61626c653a206e6577206f776e657220697320746865207a65726f206160008201527f6464726573730000000000000000000000000000000000000000000000000000602082015250565b60006158b8602683614428565b91506158c38261585c565b604082019050919050565b600060208201905081810360008301526158e7816158ab565b9050919050565b60006158f9826135fd565b9150615904836135fd565b9250817fffffffffffffffffffffffffffffffffffffffffffffffffffffffffffffffff048311821515161561593d5761593c614772565b5b828202905092915050565b7f4e487b7100000000000000000000000000000000000000000000000000000000600052601260045260246000fd5b6000615982826135fd565b915061598d836135fd565b92508261599d5761599c615948565b5b828204905092915050565b600080604083850312156159bf576159be613558565b5b60006159cd85828601614dfc565b92505060206159de85828601614a59565b9150509250929050565b60006159f3826135fd565b91506159fe836135fd565b9250827fffffffffffffffffffffffffffffffffffffffffffffffffffffffffffffffff03821115615a3357615a32614772565b5b828201905092915050565b7f4f776e61626c653a2063616c6c6572206973206e6f7420746865206f776e6572600082015250565b6000615a74602083614428565b9150615a7f82615a3e565b602082019050919050565b60006020820190508181036000830152615aa381615a67565b9050919050565b7f696e76616c6964207377617020726174696f0000000000000000000000000000600082015250565b6000615ae0601283614428565b9150615aeb82615aaa565b602082019050919050565b60006020820190508181036000830152615b0f81615ad3565b9050919050565b615b1f81614c01565b82525050565b6000608082019050615b3a6000830187613dcd565b615b476020830186615b16565b615b546040830185613dcd565b615b616060830184613dcd565b95945050505050565b7f4e487b7100000000000000000000000000000000000000000000000000000000600052602160045260246000fd5b7f45434453413a20696e76616c6964207369676e61747572650000000000000000600082015250565b6000615bcf601883614428565b9150615bda82615b99565b602082019050919050565b60006020820190508181036000830152615bfe81615bc2565b9050919050565b7f45434453413a20696e76616c6964207369676e6174757265206c656e67746800600082015250565b6000615c3b601f83614428565b9150615c4682615c05565b602082019050919050565b60006020820190508181036000830152615c6a81615c2e565b9050919050565b7f45434453413a20696e76616c6964207369676e6174757265202773272076616c60008201527f7565000000000000000000000000000000000000000000000000000000000000602082015250565b6000615ccd602283614428565b9150615cd882615c71565b604082019050919050565b60006020820190508181036000830152615cfc81615cc0565b9050919050565b7f45434453413a20696e76616c6964207369676e6174757265202776272076616c60008201527f7565000000000000000000000000000000000000000000000000000000000000602082015250565b6000615d5f602283614428565b9150615d6a82615d03565b604082019050919050565b60006020820190508181036000830152615d8e81615d52565b9050919050565b7f5361666545524332303a204552433230206f7065726174696f6e20646964206e60008201527f6f74207375636365656400000000000000000000000000000000000000000000602082015250565b6000615df1602a83614428565b9150615dfc82615d95565b604082019050919050565b60006020820190508181036000830152615e2081615de4565b9050919050565b7f416464726573733a20696e73756666696369656e742062616c616e636520666f60008201527f722063616c6c0000000000000000000000000000000000000000000000000000602082015250565b6000615e83602683614428565b9150615e8e82615e27565b604082019050919050565b60006020820190508181036000830152615eb281615e76565b9050919050565b7f416464726573733a2063616c6c20746f206e6f6e2d636f6e7472616374000000600082015250565b6000615eef601d83614428565b9150615efa82615eb9565b602082019050919050565b60006020820190508181036000830152615f1e81615ee2565b9050919050565b6000615f3082613755565b615f3a8185614428565b9350615f4a818560208601613771565b615f53816137a4565b840191505092915050565b60006020820190508181036000830152615f788184615f25565b90509291505056fea2646970667358221220cd14309a537b6d34604d2907a8f5399d4dd61ba224a6fd4064d8f95c5359420864736f6c63430008090033",
  "linkReferences": {},
  "deployedLinkReferences": {}
}